:100000000C9453010C947B010C947B010C947B01A8
:100010000C947B010C947B010C947B010C947B0170
:100020000C947B010C947B010C947B010C947B0160
:100030000C947B010C947B010C947B010C947B0150
:100040000C94670E0C947B010C94350E0C940F0EDF
:100050000C947B010C947B010C947B010C947B0130
:100060000C94B10E0C947B01084AD73B3BCE016E39
:1000700084BCBFFDC12F3D6C74319ABD56833DDAFF
:100080003D00C77F11BED9E4BB4C3E916BAAAABE0E
:10009000000000803F07634236B79BD8A71A396833
:1000A0005618AEBAAB558C1D3CB7CC5763BD6DED41
:1000B000FD753EF6177231BF000000803F0800005A
:1000C00000BE922449123EABAAAA2ABECDCCCC4C8B
:1000D0003E00000080BEABAAAAAA3E00000000BFFE
:1000E000000000803F0000000000084178D3BB43BF
:1000F00087D1133D190E3CC3BD4282AD2B3E68EC47
:100100008276BED98FE1A93E4C80EFFFBE01C4FFCD
:100110007F3F0000000000000000000024002700D6
:100120002A0000000000250028002B00000000002D
:100130002300260029000404040404040404020229
:100140000202020203030303030301020408102056
:100150004080010204081020010204081020000061
:100160000008000201000003040700000000000076
:1001700000002053572056657273696F6E205061DE
:100180007463683A20307800205357204275696CB8
:1001900064204E756D6265723A20307800205357A6
:1001A0002050617274204E756D6265723A2030780D
:1001B000002053572056657273696F6E204D696E2B
:1001C0006F723A2030780053572056657273696F0A
:1001D0006E204D616A6F723A20307800535049208A
:1001E000494E542074696D656F75740053504920F1
:1001F00057616974004779726F2D766563746F7209
:100200000057616B652D7265706F72740053656E77
:10021000736F722D7265706F727400436F6E7472BB
:100220006F6C0045786563757461626C6500436F3F
:100230006D6D616E6400204368616E6E656C3A009E
:10024000204C656E6774683A00205B436F6E74697A
:100250006E756564207061636B65745D20003000AD
:10026000200020426F64793A003000200048656128
:100270006465723A00300020004865616465723A36
:10028000004932432074696D656F7574004D4520D7
:1002900043616C207265706F727420666F756E6456
:1002A00021002100D00F11241FBECFEFD8E0DEBF08
:1002B000CDBF12E0A0E0B1E0EEEFFEE302C005909A
:1002C0000D92A637B107D9F725E0A6E7B2E001C045
:1002D0001D92A534B207E1F711E0C3E5D1E004C0F7
:1002E0002197FE010E94771FC235D107C9F70E94EE
:1002F0005E100C947D1F0C9400000895089580E416
:1003000080937C0080917A00806480937A00809151
:100310007A0086FDFCCF8091780090917900089555
:1003200080910C0490910D04891B990B0895EF9214
:10033000FF920F931F93CF93DF938C017B01D0E04B
:10034000C0E0F701EC0FFD1F6491662361F0D80156
:10035000ED91FC910190F081E02DC8010995892B68
:1003600011F02196EECFCE01DF91CF911F910F9129
:10037000FF90EF900895AF92BF92CF92DF92EF92ED
:10038000FF920F931F93CF93DF936C017B018B013F
:10039000040F151FEB015E01AE18BF08C017D1078F
:1003A00059F06991D601ED91FC910190F081E02D19
:1003B000C6010995892B79F7C501DF91CF911F916E
:1003C0000F91FF90EF90DF90CF90BF90AF90089586
:1003D000FC01538D448D252F30E0842F90E0821B4B
:1003E000930B541710F0CF96089501970895FC01D0
:1003F000918D828D981761F0A28DAE0FBF2FB11D28
:100400005D968C91928D9F5F9F73928F90E008957F
:100410008FEF9FEF0895FC01918D828D981731F039
:10042000828DE80FF11D858D90E008958FEF9FEF8D
:100430000895FC01918D228D892F90E0805C9F4F63
:10044000821B91098F739927089589E693E00E9492
:10045000190221E0892B09F420E0822F089580E021
:1004600090E0892B29F00E94250281110C94000054
:100470000895FC01A48DA80FB92FB11DA35ABF4F39
:100480002C91848D90E001968F739927848FA68993
:10049000B7892C93A089B1898C91837080648C93E7
:1004A000938D848D981306C00288F389E02D808196
:1004B0008F7D80830895EF92FF920F931F93CF93C8
:1004C000DF93EC0181E0888F9B8D8C8D98131AC08F
:1004D000E889F989808185FF15C09FB7F894EE8976
:1004E000FF896083E889F9898081837080648083D3
:1004F0009FBF81E090E0DF91CF911F910F91FF901E
:10050000EF900895F62E0B8D10E00F5F1F4F0F73C5
:100510001127E02E8C8D8E110CC00FB607FCFACF80
:10052000E889F989808185FFF5CFCE010E943902E3
:10053000F1CFEB8DEC0FFD2FF11DE35AFF4FF08251
:100540009FB7F8940B8FEA89FB8980818062CFCFB7
:10055000CF93DF93EC01888D8823B9F0AA89BB89FA
:10056000E889F9898C9185FD03C0808186FD0DC0E5
:100570000FB607FCF7CF8C9185FFF2CF808185FF06
:10058000EDCFCE010E943902E9CFDF91CF910895DE
:10059000833081F028F4813099F08230A9F00895F9
:1005A0008730A9F08830C9F08430B1F480918000A0
:1005B0008F7D03C0809180008F77809380000895A5
:1005C00084B58F7784BD089584B58F7DFBCF8091EE
:1005D000B0008F778093B00008958091B0008F7D38
:1005E000F9CFCF93DF93282F30E0F901E25AFE4F85
:1005F0008491F901E65BFE4FD491F901EA5CFE4F6C
:10060000C491CC23A1F081110E94C802EC2FF0E02C
:10061000EE0FFF1FE45DFE4FA591B491EC91ED2329
:1006200081E090E009F480E0DF91CF91089580E0CF
:1006300090E0FACF1F93CF93DF93282F30E0F9019A
:10064000E25AFE4F8491F901E65BFE4FD491F90125
:10065000EA5CFE4FC491CC23A9F0162F81110E94B1
:10066000C802EC2FF0E0EE0FFF1FEE5DFE4FA591EC
:10067000B4918FB7F894EC91111108C0D095DE2396
:10068000DC938FBFDF91CF911F910895DE2BF8CFC0
:10069000CF93DF9390E0FC01E65BFE4F24918A5CF0
:1006A0009E4FFC0184918823D1F090E0880F991F20
:1006B000FC01E85EFE4FA591B491FC01EE5DFE4F9A
:1006C000C591D491623071F49FB7F8943C91822F18
:1006D000809583238C93E8812E2B28839FBFDF9105
:1006E000CF9108958FB7F894EC912E2B2C938FBF58
:1006F000F6CF1F93CF93DF93182FEB0161E00E9499
:100700004803209739F460E0812FDF91CF911F914A
:100710000C941A03CF3FD10511F461E0F5CFE12F1E
:10072000F0E0E25AFE4FE491E33031F140F4E13081
:10073000B1F0E230E1F0C038D1057CF7E4CFE7302A
:1007400029F1E83059F1E430B1F7809180008062FE
:1007500080938000D0938B00C0938A0004C084B53E
:10076000806884BDC7BDDF91CF911F91089584B586
:10077000806284BDC8BDF7CF80918000806880937F
:100780008000D0938900C0938800EDCF8091B000A5
:1007900080688093B000C093B300E5CF8091B00033
:1007A00080628093B000C093B400DDCF3FB7F8946F
:1007B0008091DB029091DC02A091DD02B091DE021B
:1007C00026B5A89B05C02F3F19F00196A11DB11DAC
:1007D0003FBFBA2FA92F982F8827BC01CD01620FE8
:1007E000711D811D911D42E0660F771F881F991FA3
:1007F0004A95D1F708958F929F92AF92BF92CF9270
:10080000DF92EF92FF924B015C010E94D6036B01D5
:100810007C010E94D6036C197D098E099F09683EF0
:10082000734081059105A8F321E0821A9108A1087F
:10083000B10888EEC80E83E0D81EE11CF11C8114BB
:100840009104A104B10429F7FF90EF90DF90CF90BD
:10085000BF90AF909F908F9008952091B702260F80
:100860003327331F21323105ECF420916303FC015F
:1008700090E080E0243069F082E00895A091B70212
:100880002191AC0149565D4FA40FB52FB11D2C939A
:100890000196861798F38091B702680F6093B702AC
:1008A00080E0089581E008951092630381E08093D1
:1008B000420310923D0361E082E10E941A0361E06D
:1008C00083E10E941A03E9EBF0E080818E7F808350
:1008D00080818D7F808388E48093B80085E4809355
:1008E000BC000895CF93DF9391E090939602882304
:1008F000B9F0C091B800D091BA008091BC008A7B59
:100900008093BC0060E082E10E941A0360E083E112
:100910000E941A030E945404D093BA00C093B800F6
:10092000DF91CF910895CF92DF92EF92FF920F93D4
:100930001F93CF93DF93D82FC62F613208F098C052
:100940000E94D6036B017C018091630381116BC00F
:1009500081E080936303809342039FEF9093410370
:10096000109240039C0F90933F0380933E0380912D
:100970003E03DD0FD82BD0933E0380913D038130A1
:1009800009F078C010923D030E94D6036B017C01F0
:1009900080913E038093BB00809165039091660334
:1009A000A0916703B0916803892B8A2B8B2BA1F050
:1009B0000E94D6030091650310916603209167039E
:1009C000309168036C197D098E099F090617170776
:1009D0002807390708F448C08091BC0083FDD8CFB0
:1009E00085EC8093BC000E94D6036B017C01809152
:1009F0006303813009F440C0809140038C1710F4E8
:100A0000C0914003EDE1F3E0A3E4B3E080E08C1398
:100A100055C08C2FDF91CF911F910F91FF90EF90D8
:100A2000DF90CF9008958091650390916603A09127
:100A30006703B0916803892B8A2B8B2B09F484CF31
:100A40000E94D6030091650310916603209167030D
:100A5000309168036C197D098E099F0906171707E5
:100A60002807390708F070CF809164030E94720450
:100A7000C0E0CFCF85EEB5CF80916503909166033E
:100A8000A0916703B0916803892B8A2B8B2B09F403
:100A9000AECF0E94D60300916503109166032091AA
:100AA0006703309168036C197D098E099F09061749
:100AB00017072807390708F09ACFD6CF91919D9351
:100AC0008F5FA5CF0895E0910D0480910C04E81785
:100AD00030F4F0E0ED5BFC4F808190E008958FEF03
:100AE0009FEF089590910D0480910C042FEF3FEF3C
:100AF000981748F4E92FF0E0ED5BFC4F208130E0DF
:100B00009F5F90930D04C9010895CF92DF92EF92F9
:100B1000FF920F931F93CF93DF937C01CB018A0148
:100B200020911C03222389F0EB016B01C40ED51E1A
:100B3000CC15DD0569F06991D701ED91FC9101902B
:100B4000F081E02DC7010995F3CF642F0E942D0499
:100B5000C801DF91CF911F910F91FF90EF90DF902F
:100B6000CF900895CF93DF931F92CDB7DEB76983FF
:100B700020911C032223F9F020910A04203258F01E
:100B800021E030E0FC013383228390E080E00F908D
:100B9000DF91CF91089580910B04E82FF0E0EA589F
:100BA000FD4F998190838F5F80930B0480930A049B
:100BB00081E090E0ECCF61E0CE0101960E942D042F
:100BC000F7CFCF92DF92EF92FF920F931F93CF93C5
:100BD000DF93D0910A0481E0D13208F09CC0C0912B
:100BE0001B030E94D6036B017C018091630381117A
:100BF0006CC082E08093630381E0809342038FEFB7
:100C00008093410310924003D0933F03A6E7B2E0E4
:100C1000EDE1F3E080E0D8138DC010923E038091A7
:100C20003E03CC0FC82BC0933E0380913D0381301F
:100C300009F084C010923D030E94D6036B017C0131
:100C400080913E038093BB00809165039091660381
:100C5000A0916703B0916803892B8A2B8B2BA1F09D
:100C60000E94D603009165031091660320916703EB
:100C7000309168036C197D098E099F0906171707C3
:100C80002807390708F442C08091BC0083FDD8CF03
:100C900085EC8093BC000E94D6036B017C0180919F
:100CA0006303823009F44CC0809141038F3F09F403
:100CB00069C080914103803209F466C0809141038C
:100CC000803309F463C084E026C08091650390916D
:100CD0006603A0916703B0916803892B8A2B8B2B45
:100CE00009F483CF0E94D603009165031091660337
:100CF00020916703309168036C197D098E099F0963
:100D0000061717072807390708F06FCF809164038B
:100D10000E94720485E010920B0410920A04109253
:100D20001C03DF91CF911F910F91FF90EF90DF9007
:100D3000CF9008959D9191938F5F6DCF85EEA9CF50
:100D40008091650390916603A0916703B091680359
:100D5000892B8A2B8B2B09F4A2CF0E94D6030091FA
:100D600065031091660320916703309168036C1945
:100D70007D098E099F09061717072807390708F00C
:100D80008ECFC4CF80E0C7CF82E0C5CF83E0C3CF92
:100D900090E080E0089508958EBD00000DB407FE38
:100DA000FDCF8EB508958CBD9DBD0895CF93DF9383
:100DB000C0910003D091010380912E018823F9F0A6
:100DC000D7FD10C05C9AC0910003D0910103BE0111
:100DD00083E00E947903D093ED02C093EC02DF918F
:100DE000CF9108955C9880910003909101039195B3
:100DF000819591099093010380930003E4CF1C1621
:100E00001D0694F470E060E089E00E947903BE0161
:100E100083E00E94790380910003909101039093F5
:100E2000ED028093EC02DBCFD195C195D109D0932F
:100E30000103C093000370E060E083E00E94790347
:100E4000BE0189E0E6CFDC01ED91FC910190F081DB
:100E5000E02D0994CF93DF93EFE3F5E08581836084
:100E6000C181D28123813481C22BD32BD168C82B7D
:100E7000808191E090931C0380931B0310920B04DC
:100E800010920A0461E070E08EE094E00E94230773
:100E90006D2F8EE094E00E94B2056C2F8EE094E0FE
:100EA0000E94B2058EE094E0DF91CF910C94E105B1
:100EB0000F931F93FC0100E012E12AE730E090E07D
:100EC000401751076207730740F436952795179529
:100ED00007959F5F9630A1F797E0292F286B2695FD
:100EE00020839095917091831F910F910895CF93D6
:100EF000DF93CFE3D5E0888191E090931C0380934A
:100F00001B0310920B0410920A0470E060E08EE064
:100F100094E00E9423078EE094E00E94E10562E0E5
:100F200088810E94930410920D0480930C048EE03B
:100F300094E00E947205C82F8EE094E00E94720532
:100F400020E0822B9C2BDF91CF910895CF92DF92EE
:100F5000EF92FF92CF93C62FBC01990F880B990B8C
:100F60000E943E1C6B017C016C2F70E071956195B5
:100F70007109072E000C880B990B0E943E1C9B01E7
:100F8000AC0160E070E080E090E40E948F1D9B0166
:100F9000AC01C701B6010E94221DCF91FF90EF90D6
:100FA000DF90CF900895FB0101900020E9F7319781
:100FB000AF01461B570BDC01ED91FC910280F381E0
:100FC000E02D09948F929F92AF92BF92EF92FF9281
:100FD0000F931F93CF93DF93CDB7DEB7A1970FB6D3
:100FE000F894DEBF0FBECDBF7C01FA01CB0119A280
:100FF000223008F42AE08E010F5D1F4F822E912CC3
:10100000B12CA12CBF01A50194010E94361FF9014A
:10101000CA016A300CF5605DD8016E938D01232BF7
:10102000242B252B79F790E080E0109721F0BD016B
:10103000C7010E94D307A1960FB6F894DEBF0FBE7A
:10104000CDBFDF91CF911F910F91FF90EF90BF9097
:10105000AF909F908F900895695CDECF242F462F2C
:1010600050E070E060E00C94E2076AE671E00C94F6
:10107000D307CF93DF93BC0189E693E00E94D307A7
:10108000EC0189E693E00E9435088C0F9D1FDF91EB
:10109000CF910895CF93DF9340E150E0682F89E628
:1010A00093E00E942E08EC0189E693E00E94350847
:1010B0008C0F9D1FDF91CF9108950F931F93CF93B6
:1010C000DF93EC010E9497018C01CE010E9435084C
:1010D000800F911FDF91CF911F910F9108951F9362
:1010E000CF93DF93E0911A04F0911B044091220406
:1010F000609120047091210420911F0480911F04AD
:1011000090912004A0912104B091220480930D05B8
:1011100090930E05A0930F05B093100590912504B0
:10112000D09127048091230430911C043530B1F50F
:1011300090911E04322F292F3093FA042093F90442
:101140007093FC046093FB04982F842F9093FE040B
:101150008093FD04809124049091250490930005D0
:101160008093FF04809126049091270490930605B4
:101170008093050580912804909129049093080597
:101180008093070580912A0490912B0490930A057F
:1011900080930905DF91CF911F910895FF773497D0
:1011A000C0912804937060912704709128044091A5
:1011B000290450912A0420912B0430912C04EF3003
:1011C000F105FCF0A0912D04B0912E047197DCF094
:1011D000E0912F04F09130048130C1F4892F90E028
:1011E0009093E0048093DF047093DA046093D90451
:1011F0005093DC044093DB043093DE042093DD0441
:10120000C9CFB0E0A0E0F0E0E0E0E6CF843099F4B0
:10121000892F90E09093E8048093E7047093E204B0
:101220006093E1045093E4044093E3043093E604B4
:101230002093E504AFCF823099F4892F90E090930A
:10124000F0048093EF047093EA046093E9045093F0
:10125000EC044093EB043093EE042093ED049ACF1A
:10126000833099F4892F90E09093F8048093F704E9
:101270007093F2046093F1045093F4044093F304E8
:101280003093F6042093F50485CF853031F0883013
:1012900021F018ED180F1230D8F4892F90E09093B8
:1012A0000405809303057093FA046093F904509346
:1012B000FC044093FB043093FE042093FD04B093A0
:1012C0000005A093FF04F0930205E093010562CFAF
:1012D000813129F430930C0520930B055BCF8331CA
:1012E00019F4D093110556CF8E3199F4C09312059D
:1012F000A9E2B4E090E080E02D91E0911305F09137
:101300001405E80FF91F2083019689309105A1F794
:1013100041CF843169F47093200560931F05509389
:10132000220540932105309324052093230532CFD5
:10133000853169F47093260560932505509328053F
:101340004093270530932A052093290523CF863122
:1013500069F470932C0560932B0550932E054093F0
:101360002D053093300520932F0514CF813F09F0D0
:1013700011CF8091CE04882341F062EA72E080911F
:10138000CC049091CD040E945D08809125048730A3
:1013900009F000CF8091CE04882341F06DE872E01F
:1013A0008091CC049091CD040E945D088091280426
:1013B00080931505EFCECF93C4E68091C904909138
:1013C000CA04DC01ED91FC910084F185E02D0995C2
:1013D00018161906BCF061E070E080E090E00E9411
:1013E000FB03C15051F78091CE04882349F061E896
:1013F00072E08091CC049091CD040E945D0880E061
:10140000CF91089581E0FCCF8F929F92BF92CF92AF
:10141000DF92EF92FF920F931F93CF93DF9300D051
:10142000CDB7DEB78091C9049091CA04892B09F029
:1014300067C18091D7040E94F102019709F46BC043
:101440004091D1045091D2046091D3047091D4049E
:10145000CE0101960E94580789819A810E94D30685
:1014600060E08091D5040E941A0380E00E94CC06BF
:10147000082F80E00E94CC06182F80E00E94CC0646
:10148000F82E80E00E94CC0600931A0410931B04EF
:10149000F0921C0480931D04C8019F770097E9F522
:1014A0008091CE048823B9F169E772E08091CC0481
:1014B0009091CD040E9497010AE114E05EE1E52ECF
:1014C00054E0F52E67E772E08091CC049091CD0452
:1014D0000E949701D8018D918D01803140F465E71C
:1014E00072E08091CC049091CD040E94970140E17C
:1014F00050E0F801319760818091CC049091CD0447
:101500000E942E08E016F106E9F68091CC04909135
:10151000CD040E943508F12C22C08C010450110921
:10152000F12CE12CE016F10678F48FEF0E94CC0646
:10153000B0E8EB16F10420F4F701E65EFB4F84837C
:10154000EFEFEE1AFE0AEECF61E08091D5040E9423
:101550001A03F090CE04F11011C0FF24F3948F2DE4
:101560000F900F90DF91CF911F910F91FF90EF900F
:10157000DF90CF90BF909F908F90089500911A04B4
:1015800010911B046DE672E08091CC049091CD0423
:101590000E9497014AE1C42E44E0D42E6BE672E02B
:1015A0008091CC049091CD040E949701D6018D9139
:1015B0006D01803140F469E672E08091CC04909135
:1015C000CD040E94970140E150E0F601319760811F
:1015D0008091CC049091CD040E942E08BEE1CB16E0
:1015E000B4E0DB06D9F63CEFB32EB00EE8E2EB1523
:1015F00010F428E2B22E62E672E08091CC04909161
:10160000CD040E9497019EE1C92E94E0D92EE12CD1
:101610008091CC049091CD04BE1401F160E672E09B
:101620000E9497014601D6018C91803140F46EE50D
:1016300072E08091CC049091CD040E949701BFEF9D
:10164000CB1ADB0A40E150E0F40160818091CC04C8
:101650009091CD040E942E08E394DACF17FF05C0C5
:1016600069E472E00E945D081F7760E472E0809197
:10167000CC049091CD040E949701A80170E060E035
:101680002AE08091CC049091CD040E94E20766E3A9
:1016900072E08091CC049091CD040E9497016091FA
:1016A0001C048091CC049091CD0461110BC06EE2BA
:1016B00072E00E9497018091CC049091CD040E9429
:1016C00035084DCF613019F463E272E0F2CF623039
:1016D00019F46BE172E0EDCF633019F46DE072E064
:1016E000E8CF643019F461E072E0E3CF653019F4BB
:1016F00065EF71E0DECF4AE050E00E942E08DBCFBC
:1017000064E08091CB040E94930410920D048093B6
:101710000C040E94DB09882309F4FDCE8091C904E2
:101720009091CA04DC01ED91FC910284F385E02DD7
:101730000995F82E8091C9049091CA04DC01ED91BD
:10174000FC910284F385E02D0995E82E8091C9046F
:101750009091CA04DC01ED91FC910284F385E02DA7
:101760000995182F8091C9049091CA04DC01ED916C
:10177000FC910284F385E02D0995F0921A04E09221
:101780001B0410931C0480931D0400E01E2D0F29E0
:101790001F770115110509F4BECE04501109D12C93
:1017A000C12C0115110509F4D8CE78010D311105B0
:1017B00018F08CE1E82EF12C64E06E0D8091CB04E2
:1017C0000E94930410920D0480930C040E94DB0984
:1017D000882309F4C2CE8091C9049091CA04DC0127
:1017E000ED91FC910284F385E02D09958091C90467
:1017F0009091CA04DC01ED91FC910284F385E02D07
:1018000009958091C9049091CA04DC01ED91FC9185
:101810000284F385E02D09958091C9049091CA0452
:10182000DC01ED91FC910284F385E02D0995B12C4A
:10183000BE141F04C0F48091C9049091CA04DC0155
:10184000ED91FC910284F385E02D0995B0E8CB166B
:10185000D10438F4F601E65EFB4F8483F60131963D
:101860006F01B394E5CF0E191F099BCFCF938091E1
:10187000D7048F3F49F40E94040AC82F811109C080
:10188000C0E08C2FCF9108950E94F102019799F743
:10189000F7CF80911C04833039F480911E048B3F74
:1018A00079F70E946F08EDCF8230A1F580911E0478
:1018B000813FC9F480912004873019F78091230477
:1018C000809315058091240480931605809125044A
:1018D0008093170580912604809318058091270432
:1018E00080931905CECF8C3F61F680911F048093C1
:1018F0001A058091230490912404A0912504B091AD
:10190000260480931B0590931C05A0931D05B0939E
:101910001E05B7CF853009F0B3CFC3CFCF92DF928A
:10192000EF92FF920F931F93CF93DF9300D0CDB729
:10193000DEB7082FF62E14E0160F8091C90490919F
:10194000CA04009709F073C02DE7E22E8091D704F6
:101950000E94F102892B21F18091CE04882341F06D
:101960006CEE71E08091CC049091CD040E945D08F2
:1019700061E070E080E090E00E94FB03EA94E110F7
:10198000E5CF9091CE04992309F445C06CED71E048
:101990008091CC049091CD040E945D0890E03BC002
:1019A0004091D1045091D2046091D3047091D40439
:1019B000CE0101960E94580789819A810E94D30620
:1019C00060E08091D5040E941A03812F0E94CC060A
:1019D00080E00E94CC06802F0E94CC06A02FB0E0B1
:1019E000A256BB4F8C9191E0980F9C930E94CC061D
:1019F0009EE1C92E94E0D92E10E0D6018D916D01A3
:101A00000E94CC061F5FF112F8CF61E08091D504EF
:101A10000E941A0391E0892F0F900F90DF91CF91D0
:101A20001F910F91FF90EF90DF90CF90089520913C
:101A3000CB0431E030931C0320931B0310920B0462
:101A400010920A04612F70E00E94230770E060E0AA
:101A50008091C9049091CA040E9423078091C9040F
:101A60009091CA04DC01ED91FC910190F081E02D90
:101A7000602F09958091C9049091CA04DC01ED9111
:101A8000FC910190F081E02DA02FB0E0A256BB4F59
:101A90006C9121E0260F2C9309958EE1C82E84E0ED
:101AA000D82E10E08091C9049091CA04F60161918A
:101AB0006F01DC01ED91FC910190F081E02D099521
:101AC0001F5FF112EFCF8091C9049091CA040E9468
:101AD000E10591E0882309F49ECF60CF85ED8093E6
:101AE000BC008091650390916603A0916703B0915B
:101AF00068030796A11DB11D23E0B695A79597959C
:101B000087952A95D1F72091BC0024FD03C010923F
:101B100063030895409165035091660360916703E4
:101B200070916803452B462B472B69F30097A1055D
:101B3000B10541F02AE22A95F1F700C00197A10909
:101B4000B109E1CF809164030C947204FF920F936A
:101B50001F93CF93DF93EC01F62E08811981C80102
:101B60000E949A1AF81621F06F2DC8010E94A21A3D
:101B7000CE01DF91CF911F910F91FF900895EF92C9
:101B8000FF920F931F93CF93DF9300D0CDB7DEB7B3
:101B900086E3E82E81E0F82E0AE010E01A8309833C
:101BA000F70161917F01CE0101960E94A60D0F5FA2
:101BB0001F4F0831110591F786E391E00F900F90C8
:101BC000DF91CF911F910F91FF90EF900895EF92C9
:101BD000FF920F931F93CF93DF9300D0CDB7DEB763
:101BE0008AE2E82E81E0F82E08E210E01A830983E9
:101BF000F70161917F01CE0101960E94A60D0F5F52
:101C00001F4F0433110591F78AE291E00F900F9076
:101C1000DF91CF911F910F91FF90EF9008951F9248
:101C20000F920FB60F9211242F933F934F935F9310
:101C30006F937F938F939F93AF93BF93EF93FF9394
:101C400089E693E00E943902FF91EF91BF91AF9135
:101C50009F918F917F916F915F914F913F912F91C4
:101C60000F900FBE0F901F9018951F920F920FB6F6
:101C70000F9211242F938F939F93EF93FF93E091F3
:101C80007903F0917A038081E0917F03F0918003E2
:101C900082FD1BC09081809182038F5F8F732091A2
:101CA0008303821741F0E0918203F0E0E759FC4F93
:101CB000958F80938203FF91EF919F918F912F9148
:101CC0000F900FBE0F901F9018958081F4CF1F9238
:101CD0000F920FB60F9211242F933F938F939F93E0
:101CE000AF93BF938091E2029091E302A091E4024E
:101CF000B091E5023091DA0223E0230F2D3758F539
:101D00000196A11DB11D2093DA028093E202909307
:101D1000E302A093E402B093E5028091DB0290918C
:101D2000DC02A091DD02B091DE020196A11DB11D81
:101D30008093DB029093DC02A093DD02B093DE027D
:101D4000BF91AF919F918F913F912F910F900FBEB7
:101D50000F901F90189526E8230F0296A11DB11D24
:101D6000D2CF1F920F920FB60F9211242F933F9351
:101D70004F935F936F937F938F939F93AF93BF9393
:101D8000EF93FF938091B900887F803609F44AC0B1
:101D9000F0F5883209F4A7C018F5803109F49BC02A
:101DA000B8F4882309F4F9C0883009F494C0FF918D
:101DB000EF91BF91AF919F918F917F916F915F91C3
:101DC0004F913F912F910F900FBE0F901F9018953C
:101DD000883109F488C0803251F78093410314C0E0
:101DE000803409F49DC040F48033B9F38833F9F6A8
:101DF0008093410385ECB0C0803509F485C08835F7
:101E000009F496C0883499F60E946E0DD0CF8839B7
:101E100009F48CC038F5883729F050F4883611F071
:101E2000803729F683E0809363031092D90257C06C
:101E3000883809F47BC0803919F0803809F0B7CFB1
:101E40008091D902803208F071C0E091D90281E01E
:101E50008E0F8093D9028091BB00F0E0E754FD4FD4
:101E600080833DC0803B39F0E0F4803A09F479C0CA
:101E7000883A09F09CCF84E0809363031092B80203
:101E80001092B702E0910604F09107040995809141
:101E9000B70281110FC081E08093B70210929702C0
:101EA00009C0803C09F4A6CF883C09F4A3CF883B45
:101EB00009F07DCFE091B80281E08E0F8093B802E7
:101EC000F0E0E956FD4F80818093BB009091B8020D
:101ED0008091B70229C080913E038093BB0085ECBE
:101EE0008093BC0064CF9091400380913F0398178A
:101EF00058F5E091400381E08E0F80934003F0E0BD
:101F0000E35EFC4F8081E9CFE091400381E08E0FDA
:101F1000809340038091BB00F0E0E35EFC4F808340
:101F20009091400380913F039817C8F285E8D8CF7D
:101F3000E091400381E08E0F809340038091BB00CD
:101F4000F0E0E35EFC4F80838091420381115CCF1F
:101F500081E080933D0384EA8093BC001092630388
:101F600026CF85EC8093BC00109263038091D90248
:101F7000803230F4E091D902F0E0E754FD4F108256
:101F80006091D90270E0E0910804F091090489EBB6
:101F900092E009951092D9020ACF1092410334CFF2
:101FA000E9E6F3E01382128288EE93E0A0E0B0E06D
:101FB00084839583A683B7832AE431E03183208329
:101FC00025EC30E03587248724EC30E037872687FE
:101FD00020EC30E0318B208B21EC30E0338B228BF6
:101FE00022EC30E0358B248B26EC30E0378B268BCF
:101FF000118E128E138E148EEEE0F4E01382128294
:1020000084839583A683B7838CE591E09183808355
:1020100010920D0410920C0410920B0410920A04FA
:102020000E9454048DE791E0909307048093060486
:102030008EE791E09093090480930804EFE3F5E0C4
:1020400088E4808380E094E0928381831482138209
:1020500080E88583EEE9F4E086E0DF011D928A9551
:10206000E9F71092A4041092CE048EE090E09093D1
:102070003205809331058CE090E090933405809395
:10208000330588E090E09093360580933505909372
:1020900038058093370589E090E090933A05809366
:1020A000390584E090E090933C0580933B058AE0FD
:1020B00090E090933E0580933D050895CF93DF9384
:1020C000CDB7DEB768970FB6F894DEBF0FBECDBFB1
:1020D000789484B5826084BD84B5816084BD85B503
:1020E000826085BD85B5816085BD80916E0081600F
:1020F00080936E00109281008091810082608093B5
:1021000081008091810081608093810080918000B6
:102110008160809380008091B10084608093B100E1
:102120008091B00081608093B00080917A008460DB
:1021300080937A0080917A00826080937A00809107
:102140007A00816080937A0080917A008068809321
:102150007A001092C10062E087E00E94480362E0CA
:1021600086E00E94480362E088E00E94480361E044
:1021700084E00E94480380912E01882321F061E0D1
:1021800089E00E94480310920D0410920C041092F2
:102190000B0410920A040E9454048DE791E090937E
:1021A0000704809306048EE791E0909309048093DE
:1021B0000804E0917903F0917A0382E08083E09152
:1021C0007503F09176031082E0917703F091780324
:1021D00083E3808310928103E0917D03F0917E037D
:1021E00086E08083E0917B03F0917C0380818061B5
:1021F0008083E0917B03F0917C0380818860808301
:10220000E0917B03F0917C03808180688083E09182
:102210007B03F0917C0380818F7D808311E010939C
:102220001C0380E680931B038EE094E00E94E1058E
:10223000811102C68DE691E00E94390867E771E0DE
:1022400089E693E00E94D30720E140E650E060E099
:1022500070E089E693E00E94E20789E693E00E943D
:1022600035088AE891E00E9439081093F3028091C2
:10227000F302811176C104E411E0A6E48A2EA1E004
:102280009A2EFF24F39422242A94B9EF3B2E8CE05B
:10229000E82E9DEF792E28E0622E30E9532E4FE58F
:1022A000442EF80181918F018093E1026BEB71E084
:1022B00089E693E00E94D3078091E1020E944A08D8
:1022C0008091E102F0921C0380931B0310920B0497
:1022D00010920A048EE094E00E94E1058111C0C5CD
:1022E0008DE691E00E94390865ED71E089E693E0A2
:1022F0000E94D3078091E1020E944A0888EE91E093
:102300000E9439088091E1028093CB048EE094E032
:102310009093CA048093C9042092D704F0921E04BB
:1023200061E081E00E948E0C62E370E080E090E06A
:102330000E94FB030E94040A8111FCCF62E370E05B
:1023400080E090E00E94FB030E94040A8111FCCF10
:1023500030921E0410921F0462E082E00E948E0CF4
:102360000E94040A882309F472C580911E04883FE4
:1023700009F06DC58091CE04882309F470C067EC24
:1023800071E08091CC049091CD040E94970140E1CE
:1023900050E0609120048091CC049091CD040E9483
:1023A0002E0861EB71E08091CC049091CD040E94E5
:1023B000970140E150E0609121048091CC0490911C
:1023C000CD040E942E08A0902204B0902304C09057
:1023D0002404D09025046DE971E08091CC049091A3
:1023E000CD040E94970120E1B601A5018091CC04A3
:1023F0009091CD040E94E207A0902604B09027049B
:10240000C0902804D090290468E871E08091CC0441
:102410009091CD040E94970120E1B601A501809121
:10242000CC049091CD040E94E207C0902A04D09081
:102430002B0462E771E08091CC049091CD040E945E
:102440009701A090CC04B090CD04A60170E060E0AC
:1024500020E1C5010E94E207C5010E943508E09213
:10246000B80070921E0460921F0410922004109213
:102470002104109222045092230440922404F092EA
:10248000250410922604109227041092280410921A
:10249000290410922A0410922B0410922C041092FA
:1024A0002D0410922E0461E182E00E948E0CF8EE61
:1024B000CF2EF3E0DF2EF1E0CF1AD10811F40C9407
:1024C000871A0E94360C8823B1F380911E048C3F3A
:1024D00091F760911B0570911C0580911D059091ED
:1024E0001E0520911A05283039F460392FE572074E
:1024F00021E08207910591F128EE33E040E050E0C1
:102500000E94581F69017A0163EF71E089E693E048
:102510000E94D30780911A050E944A0862E072E087
:1025200089E693E00E94D3072AE0B701A601F7FEEF
:102530000DC06DE289E693E00E945B0244275527B7
:10254000BA014C195D096E097F092AE089E693E01A
:102550000E94E20785E192E00E94390881E08093C1
:10256000F20290E080E00E949A1A8093DF0281E0FC
:1025700090E00E949A1A8093E0028091DF0290918D
:10258000E0028C3E934109F472C41A8219826CEE07
:10259000CE0101960E94A60D81E090E09A83898386
:1025A00063E1CE0101960E94A60D0E94BF0D0E941C
:1025B000E70D60913B0180913701681B770B072E77
:1025C000000C880B990B0E943E1C20E030E040EA92
:1025D00050E40E94941B6093E7027093E80280939A
:1025E000E9029093EA0280E8809344051092410545
:1025F0001092400511E006E667E2262E50E6352EE1
:102600002FB7F8948091E2029091E302A091E40246
:10261000B091E5022FBF40912601509127016091B2
:102620002801709129016C017D01C41AD50AE60ABE
:10263000F70AB701A601443151056105710508F497
:1026400043C28093260190932701A0932801B09361
:10265000290110931A03809125018B3F08F02AC4A9
:102660008F5F8093250187E00E94F102D82E80932E
:10267000190380912F01813009F01FC486E00E9468
:10268000F1028093240180913101882361F09091BF
:10269000340180911503891730F0109324011093B1
:1026A00023011092180380913201882309F44AC053
:1026B0000E947F017C012AE939E949E15FE36091E9
:1026C00011037091120380911303909114030E94DF
:1026D000221D4B015C01B701FF0C880B990B0E9476
:1026E0003E1C20E030E040E85EE30E94221D2DEC1D
:1026F0003CEC4CEC5EE30E94221D9B01AC01C50149
:10270000B4010E94B11A4B015C01809211039092B6
:102710001203A0921303B09214036091340170E08D
:1027200090E080E00E943E1C9B01AC01C501B40119
:102730000E94151D87FD06C01093240110932301EC
:102740001092180380913301882309F461C00E941C
:102750007F01BC01990F880B990B0E943E1C9B01C5
:10276000AC0160E070E080E094E40E94B01A4B019C
:102770005C0120E030E0A9010E94151D18160CF044
:10278000CDC320E030E040E05FE3C501B4010E942A
:10279000221D4B015C0123E333E343E35FE36091DC
:1027A00011037091120380911303909114030E94FE
:1027B000221D2B013C012AE939E949E95EE3C50103
:1027C000B4010E94221D9B01AC01C301B2010E9411
:1027D000B11A4B015C018092110390921203A092F6
:1027E0001303B09214036091340170E090E080E034
:1027F0000E943E1C9B01AC01C501B4010E94151D45
:1028000087FD06C010932401109323011092180332
:1028100088E00E94F102982F990F990F809124016E
:10282000880F892BD82AD092100380912D018823FC
:1028300009F47CC3E12C40E4F42EF0924305E092CD
:1028400042050E94770790930F0380930E030E9426
:102850002A0780910E0390910F0395958795909389
:102860000F0380930E0360910E0370910F0365595F
:102870007A418091380190913901C0903C01D0900B
:102880003D01E0903E01F0903F0120912A0122237A
:1028900009F451C3681B790B70930F0360930E0307
:1028A000072E000C880B990B0E943E1CA701960175
:1028B00050580E94941B60930A0370930B038093FB
:1028C0000C0390930D03C0900A03D0900B03E0908B
:1028D0000C03F0900D0320E030E0A901C701B60120
:1028E0000E948F1B87FF14C0A701960160914001D1
:1028F0007091410180914201909143010E94221DFB
:1029000060930A0370930B0380930C0390930D0361
:1029100080912E0190912501943608F027C38823D9
:1029200009F418C380912B0160E0811101C061E0BE
:1029300089E00E941A032091060330910703409119
:1029400008035091090360910A0370910B03809171
:102950000C0390910D030E94B01A4B015C01809210
:10296000020390920303A0920403B09205036091C6
:10297000360170E090E080E00E943E1CA5019401C9
:102980000E94221D0E94061C2B017B0170930103F3
:102990006093000320E030E0A901C501B4010E946A
:1029A000151D181624F0B7FAB094B7F8B09420E0CB
:1029B00030E040EA50E4C501B4010E948F1B6091F1
:1029C0003B0170E087FF1DC02091E7023091E802D3
:1029D0004091E9025091EA02C501B4010E94221D12
:1029E0004B015C016091370170E090E080E00E9453
:1029F0003E1C9B01AC01C501B4010E94B11A0E94AA
:102A0000061CF7FEAAC280913A0190E0481A590AC2
:102A100050920103409200038091000390910103C2
:102A20006817790724F4709301036093000371958C
:102A300061957109809100039091010386179707B2
:102A400024F4709301036093000380912C01882388
:102A500059F080910003909101039195819591091E
:102A60009093010380930003809135018823C9F07E
:102A700080910003909101038B3F910514F08AEF40
:102A800090E086302FEF920714F486E09FEF959543
:102A900087959595879580589F4F909301038093D4
:102AA00000030E94D6068091FF028F5F8093FF0291
:102AB0008B3050F047E050E06CE171E089E693E044
:102AC0000E94BB011092FF0289E693E00E94190266
:102AD0000297ECF08091FE02811119C08091FD02F5
:102AE000811115C089E693E00E94F7012091FB0255
:102AF0003091FC022038310509F04FC2813809F0CD
:102B00004CC21093FE021092FC021092FB0289E666
:102B100093E00E9419020397D4F08091FE0288236B
:102B2000B1F08091FD02811112C089E693E00E940C
:102B3000F70189E693E00E94F7018093FA0289E6A3
:102B400093E00E94F7018093F9021093FD0289E659
:102B500093E00E9419022091F902281719060CF03F
:102B600051C18091FE02882309F44CC18091FD027D
:102B7000882309F447C18091FA028E3F09F0AEC361
:102B800089E693E00E94F7017C0189E693E00E94C8
:102B9000F7018C8B1B8A6B897C896E297F29072E14
:102BA000000C880B990B0E943E1C2DEC3CEC4CEC6D
:102BB0005DE30E94221D4B015C018092F502909220
:102BC000F602A092F702B092F802F0901603F0928B
:102BD000F40289E693E00E94F701D82E8093160351
:102BE00081E0FD1001C080E08093170389E693E047
:102BF0000E94F7017C0189E693E00E94F7018E8B29
:102C00001D8A6D897E896E297F29072E000C880B0D
:102C1000990B0E943E1C2AE037ED43E25CE30E94E0
:102C2000221D60930603709307038093080390931B
:102C30000903D0FE0FC02DEC3CEC4CEC5DE3C5016C
:102C4000B4010E948F1B87FD05C080912401813053
:102C500009F0B7C10093250189E693E00E94F701CE
:102C600089E693E00E94F70189E693E00E94F7016C
:102C700089E693E00E94F7011092FD021092FE0295
:102C80001092F9021092FA0220E030E048EC52E48F
:102C900060910A0370910B0380910C0390910D03D6
:102CA0000E94221D0E94061C609313017093140160
:102CB0008091F302882309F487C110931C0330929A
:102CC0001B0310920B0410920A0462E070E08EE085
:102CD00094E00E9423078EE094E00E94E10562E008
:102CE00080E60E94930410920D0480930C048230BD
:102CF000F0F38EE094E00E947205809316018EE05E
:102D000094E00E9472058093150110931C03309289
:102D10001B0310920B0410920A046CE170E08EE029
:102D200094E00E9423078EE094E00E94E10562E0B7
:102D300080E60E94930410920D0480930C0482306C
:102D4000F0F38EE094E00E947205809318018EE00B
:102D500094E00E9472058093170180911003809384
:102D600019018091EC0280931A01E0E1F1E090E01A
:102D700080E022E03191830F911D2F5F2D30D1F73C
:102D800080931B014EE050E06EE071E089E693E035
:102D90000E94BB0180913201811104C080913301F6
:102DA000882359F18091EB0291E0980F9093EB0208
:102DB000833018F160911103709112038091130315
:102DC000909114030E940D1C60930501E2E0F1E074
:102DD00090E080E022E03191830F911D2F5F2D3034
:102DE000D1F780930D014EE050E060E071E089E69C
:102DF00093E00E94BB011092EB028091FF028111CF
:102E00001092FF0280911A03882309F4CBC088E056
:102E10000E94F1029091E602891709F4C3C08093E1
:102E2000E602882309F4BEC0809115038F5F80936A
:102E3000150310921A03B6C085E991E00E94390883
:102E40008FE991E00E9439081092F30210CA89E1DB
:102E500092E00E9439088016910609F482CB21CABB
:102E600085E991E00E94390883E492E0F2CFE6E33D
:102E7000EE2EE1E0FE2E0AE010E0C8010E949A1A50
:102E8000F70181937F010F5F1F4F08311105A9F7EB
:102E90007AE2E72E71E0F72E08E210E0C8010E9406
:102EA0009A1AF70181937F010F5F1F4F04331105B9
:102EB000A9F77FCB00932501D6CB809130018130DB
:102EC000C9F486E00E94F102811111C090911803AB
:102ED000913069F420912301213029F410922301CB
:102EE0001092240104C090932301909324018093B5
:102EF0001803C9CB80911703882309F4C4CB8091B0
:102F00001603813009F006C380912401813009F055
:102F1000BACB909118039111B6CBE2CFC501B401A1
:102F2000905820E030E040E05FE331CC1092430560
:102F30001092420586CC680F791F70930F0360933F
:102F40000E03072E000C880B990B0E943E1CA70154
:102F50009601AFCC61E084E0ECCCEF2809F45CCDC5
:102F600080913A0190E0480E591E52CD882391F08D
:102F700080912B0161E0811101C060E089E00E9435
:102F80001A0310920103109200030E94D6061092B9
:102F9000150389CD60E084E0F2CF99279093FC027D
:102FA0008093FB0280E0C82E80E0D82ECD2809F463
:102FB00027CB0E942502882309F420CB0E94000021
:102FC0001DCB1092250148CE8091F202882309F48E
:102FD00079C10E94360C882309F4BFCEF0903105E8
:102FE0006F2D8091FF04909100050E94A6072B0190
:102FF0003C016F2D8091F9049091FA040E94A6077C
:103000004B015C016F2D8091FB049091FC040E94A8
:10301000A6076B877C878D879E876F2D8091FD0427
:103020009091FE040E94A6076F83788789879A870C
:10303000A3019201C301B2010E94221D6B017C0118
:10304000A5019401C501B4010E94221D9B01AC01A0
:10305000C701B6010E94B11A6B017C012B853C852A
:103060004D855E85CA01B9010E94221D9B01AC01FC
:10307000C701B6010E94B11A6B017C012F8138850E
:1030800049855A85CA01B9010E94221D9B01AC01E4
:10309000C701B6010E94B11A0E94E51D6B017C01B7
:1030A000AC019B01C301B2010E94941B6F87788B16
:1030B000898B9A8BA7019601C501B4010E94941BCC
:1030C0006B837C838D839E83A70196016B857C85B2
:1030D0008D859E850E94941B4B015C01A701960182
:1030E0006F81788589859A850E94941B2B013C010C
:1030F000A5019401C501B4010E94221D6F83788748
:1031000089879A87A3019201C301B2010E94221DFF
:103110002F81388549855A850E94B11A9B01AC01DF
:103120000E94B11A9B01AC0160E070E080E89FE36F
:103130000E94B01A6B017C01A30192016F8578890E
:1031400089899A890E94221D6B877C878D879E873B
:10315000A50194016B817C818D819E810E94221D3D
:103160009B01AC016B857C858D859E850E94B11A83
:103170009B01AC010E94B11AA70196010E94301B6D
:1031800021EE3EE245E652E40E94221D6B017C01E5
:10319000DC01CB01B0588093EE029093EF02A09334
:1031A000F002B093F10220E030E0A901C701B601BE
:1031B0000E94151D1816D4F420E030E044E353E4D7
:1031C000C701B6010E948F1B181684F0A701960153
:1031D00060E070E084EB93E40E94B01A6093EE022A
:1031E0007093EF028093F0029093F1022B813C8167
:1031F0004D815E81CA01B9010E94221D2F8138854F
:1032000049855A850E94B11A9B01AC010E94B11AEE
:103210009B01AC0160E070E080E89FE30E94B01A7F
:103220006B017C012B813C814D815E816F857889AA
:1032300089899A890E94221D6B837C838D839E835A
:10324000A3019201C501B4010E94221D9B01AC01A2
:103250006B817C818D819E810E94B11A9B01AC01A2
:103260000E94B11AA70196010E94301B4B015C011C
:1032700020E030E040E251E46091EE027091EF0214
:103280008091F0029091F1020E94221D0E94061C82
:103290007B0121EE3EE245E652E4C501B4010E9405
:1032A000221D20E030E040E251E40E94221D0E94F5
:1032B000061CE0921501F0921601609317017093BD
:1032C00018014BCD3FE0309315012092160188EB99
:1032D0008093170192E2909318013FCD8C3F09F043
:1032E00095C089E693E00E94F701BC017727072E7D
:1032F000000C880B990B0E943E1C20E030E040E05F
:103300005FE30E94221D0E940D1C6093360189E636
:1033100093E00E94F70180933B0189E693E00E94CD
:10332000F7018093370189E693E00E94F7018093CB
:103330003A0189E693E00E94F701BC01990F880BDE
:10334000990B0E943E1C60933C0170933D01809359
:103350003E0190933F0189E693E00E94F70190932C
:1033600039018093380189E693E00E94F701888F44
:103370001F8A8091380190913901CF88D88C8C298F
:103380009D29909339018093380189E693E00E944A
:10339000F701BC01990F880B990B0E943E1C2AE093
:1033A00037ED43E25CE30E94221D6093400170937D
:1033B0004101809342019093430189E693E00E948A
:1033C000F7010E94BF0D60913B0180913701681B9E
:1033D000770B072E000C880B990B0E943E1C20E0F7
:1033E00030E040EA50E40E94941B6093E70270933F
:1033F000E8028093E9029093EA021092FD02109293
:10340000FE021092F9021092FA02FCCC8B3FA9F74F
:1034100089E693E00E94F70180FF5BC010932A01C8
:1034200081FF5AC010932B0182FF59C010932C01C9
:1034300083FF58C010932D0184FF57C010932E01B5
:1034400085FF56C010932F0186FF55C010933001A1
:10345000880F880B81238093310189E693E00E94D5
:10346000F7018093340189E693E00E94F70189E631
:1034700093E00E94F70180FF41C01093350181FF66
:1034800040C01093320182FF3FC01093330189E6A0
:1034900093E00E94F70189E693E00E94F70189E634
:1034A00093E00E94F70189E693E00E94F70189E624
:1034B00093E00E94F7010E94E70D1092FD02109226
:1034C000FE021092F9021092FA02F0E0E0E0099593
:1034D00099CC10922A01A4CF10922B01A5CF109263
:1034E0002C01A6CF10922D01A7CF10922E01A8CFAC
:1034F00010922F01A9CF10923001AACF109235015E
:10350000BECF10923201BFCF10923301C0CF81E6FF
:1035100092E09FCC8111B7C8809124018111B3C87A
:1035200080911803813009F0AEC880932401109275
:103530001803A9C8F999FECF92BD81BDF89A9927C1
:1035400080B50895262FF999FECF1FBA92BD81BD8F
:1035500020BD0FB6F894FA9AF99A0FBE0196089515
:103560005058BB27AA270E94C81A0C94DB1C0E9443
:10357000CD1C38F00E94D41C20F039F49F3F19F480
:1035800026F40C94A31C0EF4E095E7FB0C949D1C10
:10359000E92F0E94EC1C58F3BA17620773078407DF
:1035A000950720F079F4A6F50C940E1D0EF4E09525
:1035B0000B2EBA2FA02D0B01B90190010C01CA01ED
:1035C000A0011124FF27591B99F0593F50F4503E98
:1035D00068F11A16F040A22F232F342F4427585F8A
:1035E000F3CF469537952795A795F0405395C9F7A2
:1035F0007EF41F16BA0B620B730B840BBAF091505A
:10360000A1F0FF0FBB1F661F771F881FC2F70EC0F8
:10361000BA0F621F731F841F48F4879577956795CB
:10362000B795F7959E3F08F0B0CF9395880F08F0B7
:103630009927EE0F9795879508950E94CD1C60F00D
:1036400080E891E009F49EEF0E94D41C28F040E845
:1036500051E071F45EEF0CC00C94A31C0C940E1D91
:10366000E92FE0780E94EC1C40F3092E052AB1F303
:10367000261737074807590738F00E2E07F8E025B8
:1036800069F0E025E0640AC0EF6307F8009407FAE8
:10369000DB01B9019D01DC01CA01AD01EF930E947C
:1036A000AB1B0E94DB1C0E94601B5F91552339F00D
:1036B0002BED3FE049E450FD49EC0C94B11A08951C
:1036C000DF93DD27B92FBF7740E85FE316161706B3
:1036D00048075B0718F4D92F0E941A1D9F938F93F8
:1036E0007F936F930E94251EE8E6F0E00E94A61CDF
:1036F0000E94DB1C2F913F914F915F910E94351DDD
:10370000DD2351F09058A2EA2AED3FE049EC5FE357
:10371000D0785D270E94C81ADF910C94DB1C0E94B0
:10372000791C08F481E008950E94A81B0C94DB1C0E
:103730000E94D41C58F00E94CD1C40F029F45F3F39
:1037400029F00C949D1C51110C940F1D0C94A31C7A
:103750000E94EC1C68F39923B1F3552391F3951B58
:10376000550BBB27AA2762177307840738F09F5FA2
:103770005F4F220F331F441FAA1FA9F335D00E2E0F
:103780003AF0E0E832D091505040E695001CCAF77C
:103790002BD0FE2F29D0660F771F881FBB1F26173F
:1037A00037074807AB07B0E809F0BB0B802DBF0116
:1037B000FF2793585F4F3AF09E3F510578F00C94E5
:1037C0009D1C0C940F1D5F3FE4F3983ED4F3869547
:1037D00077956795B795F7959F5FC9F7880F911D06
:1037E0009695879597F90895E1E0660F771F881FF2
:1037F000BB1F621773078407BA0720F0621B730BA5
:10380000840BBA0BEE1F88F7E09508950E940D1CFB
:103810006894B1110C940F1D08950E94F41C88F057
:103820009F5798F0B92F9927B751B0F0E1F0660F84
:10383000771F881F991F1AF0BA95C9F714C0B130C5
:1038400091F00E940E1DB1E008950C940E1D672F9B
:10385000782F8827B85F39F0B93FCCF386957795F4
:103860006795B395D9F73EF49095809570956195DD
:103870007F4F8F4F9F4F0895E89409C097FB3EF408
:1038800090958095709561957F4F8F4F9F4F9923AD
:10389000A9F0F92F96E9BB279395F695879577952B
:1038A0006795B795F111F8CFFAF4BB0F11F460FFEB
:1038B0001BC06F5F7F4F8F4F9F4F16C0882311F043
:1038C00096E911C0772321F09EE8872F762F05C057
:1038D000662371F096E8862F70E060E02AF09A95F2
:1038E000660F771F881FDAF7880F9695879597F9E7
:1038F0000895990F0008550FAA0BE0E8FEEF161681
:103900001706E807F907C0F012161306E407F507D3
:1039100098F0621B730B840B950B39F40A2661F047
:10392000232B242B252B21F408950A2609F4A140EA
:10393000A6958FEF811D811D089597F99F6780E8F7
:1039400070E060E008959FEF80EC0895DF93CF93DF
:103950001F930F93FF92EF92DF927B018C0168948B
:1039600006C0DA2EEF010E94351DFE01E894A591F4
:103970002591359145915591A6F3EF010E94C81A02
:10398000FE019701A801DA9469F7DF90EF90FF90AC
:103990000F911F91CF91DF91089500240A9416167C
:1039A000170618060906089500240A94121613062D
:1039B000140605060895092E0394000C11F48823BB
:1039C00052F0BB0F40F4BF2B11F460FF04C06F5FD7
:1039D0007F4F8F4F9F4F089557FD9058440F551FAD
:1039E00059F05F3F71F04795880F97FB991F61F081
:1039F0009F3F79F087950895121613061406551FF8
:103A0000F2CF4695F1DF08C0161617061806991F63
:103A1000F1CF86957105610508940895E894BB2758
:103A200066277727CB0197F908950E94791C08F43F
:103A30008FEF08959B01AC0160E070E080E89FE3A8
:103A40000C94941B0E94351D0C94DB1C0E94CD1C11
:103A500038F00E94D41C20F0952311F00C949D1C8A
:103A60000C94A31C11240C940F1D0E94EC1C70F3E9
:103A7000959FC1F3950F50E0551F629FF001729F13
:103A8000BB27F00DB11D639FAA27F00DB11DAA1F22
:103A9000649F6627B00DA11D661F829F2227B00D6F
:103AA000A11D621F739FB00DA11D621F839FA00DFA
:103AB000611D221F749F3327A00D611D231F849F4A
:103AC000600D211D822F762F6A2F11249F575040A1
:103AD0009AF0F1F088234AF0EE0FFF1FBB1F661F1C
:103AE000771F881F91505040A9F79E3F510580F0E5
:103AF0000C949D1C0C940F1D5F3FE4F3983ED4F38F
:103B0000869577956795B795F795E7959F5FC1F788
:103B1000FE2B880F911D9695879597F90895FA01C8
:103B2000EE0FFF1F309621053105A1F161157105DA
:103B300061F48038BFE39B0749F1689490388105B0
:103B400061F08038BFEF9B0741F099234AF5FF3FB2
:103B5000E1053105210519F1E8940894E795D901AB
:103B6000AA2329F4AB2FBE2FF85FD0F310C0FF5F5C
:103B700070F4A695E0F7F73950F019F0FF3A38F4F1
:103B80009F779F930DD00F9007FC9058089546F0B3
:103B90000C94A31C60E070E080E89FE308954FE779
:103BA0009F775F934F933F932F930E94BA1E2F915D
:103BB0003F914F915F910E94221D0C94311E19F488
:103BC00016F40C94A31C0C94631E0E94F41CB8F30E
:103BD0009923C9F3B6F39F57550B87FF0E94711EB7
:103BE0000024A0E640EA900180585695979528F465
:103BF000805C660F771F881F20F02617370748075D
:103C000030F4621B730B840B202931294A2BA695B3
:103C100017940794202531254A2758F7660F771FF8
:103C2000881F20F026173707480730F4620B730B04
:103C3000840B200D311D411DA09581F7B901842F02
:103C40009158880F9695879508959B01AC010C9427
:103C5000221D29F416F00C949D1C0C940E1D0C943E
:103C6000A31C0E94F41CA8F39638A0F707F80F9243
:103C7000E8942BE33AEA48EB5FE70E94381D0F9285
:103C80000F920F924DB75EB70F920E94021FE5E9A7
:103C9000F0E00E94A61C4F915F91EF91FF91E59596
:103CA000EE1FFF1F49F0FE57E0684427EE0F441F48
:103CB000FA95E1F74195550B0E947C1E0F9007FE87
:103CC0000C941A1D08959F3F31F0915020F4879570
:103CD00077956795B795880F911D9695879597F974
:103CE000089591505040660F771F881FD2F70895AE
:103CF0000C949D1C0C94631E0E94F41CD8F3992311
:103D0000C9F3940F511DA3F39150504094F059F012
:103D1000882332F0660F771F881F91505040C1F7FB
:103D20009E3F51052CF7880F911D9695879597F921
:103D300008955F3FACF0983E9CF0BB278695779541
:103D40006795B79508F4B1609395C1F7BB0F58F725
:103D500011F460FFE8CF6F5F7F4F8F4F9F4FE3CF2E
:103D60000C940F1D16F00C94631E0C94A31C689405
:103D70000C949D1C0E94F41CA8F39923C1F3AEF38C
:103D8000DF93CF931F930F93FF92C92FDD278823D3
:103D90002AF02197660F771F881FDAF720E030E0BE
:103DA00040E85FEB9FE3883920F0803E38F02196B1
:103DB0008F770E94B11AEDEBF0E004C00E94B11AB7
:103DC000EAEEF0E00E94A61C8B01BE01EC01FB2E86
:103DD0006F5771097595771F880B990B0E943E1CD0
:103DE00028E132E741E35FE30E94351DAF2D9801E2
:103DF000AE01FF900F911F91CF91DF910E94C81AE1
:103E00000C94DB1CFA01DC01AA0FBB1F9B01AC0167
:103E1000BF5728F4222733274427507820C0B751B2
:103E200090F4AB2F0024469537952795011CA39558
:103E3000D2F3002071F0220F331F441FB395DAF341
:103E40000ED00C94B01A61307105A0E88A07B9460B
:103E500030F49B01AC01662777278827907830964D
:103E600021F020833183428353830895A1E21A2EE7
:103E7000AA1BBB1BFD010DC0AA1FBB1FEE1FFF1F0E
:103E8000A217B307E407F50720F0A21BB30BE40B5E
:103E9000F50B661F771F881F991F1A9469F76095A5
:103EA0007095809590959B01AC01BD01CF0108955F
:103EB000052E97FB1EF400940E946F1F57FD07D03C
:103EC0000E94361F07FC03D04EF40C946F1F5095D0
:103ED0004095309521953F4F4F4F5F4F08959095F6
:103EE0008095709561957F4F8F4F9F4F0895EE0F8E
:0E3EF000FF1F0590F491E02D0994F894FFCF88
:103EFE0080817FFA080000000000000000CC808165
:103F0E007FFD080000000000000000CC80817FC70C
:103F1E0001004701016614000000000000010100CD
:103F2E00000000000500280A0000093C0000F041D6
:103F3E000000803F4A4B000000005B02BB01E8011D
:103F4E00A8021902F7010B0200000000B205850558
:103F5E00C80662059001720563050D0A004572726E
:103F6E006F72203D203000434D5053313420414478
:103F7E0044524553733A20307800434D50533134F8
:103F8E00204F6B2E004572726F72203D203400431D
:103F9E004D5053206E6F7420436F6E6E6563746563
:103FAE0064206F7220466F756E64000D0A4368655B
:103FBE00636B696E6720666F7220424E4F303858C1
:103FCE00206F6E2000424E4F3038582041444452EC
:103FDE004553733A20307800424E4F303858204FB8
:103FEE006B2E005265706F7274204944203A203057
:103FFE0078005265706F727420696E7465727661A6
:10400E006C203A2000206D7300424E4F3038302025
:10401E006E6F7420646574656374656420617420CA
:10402E00676976656E2049324320616464726573F8
:10403E00732E00424E4F303858206E6F7420436FEF
:10404E006E6E6563746564206F7220466F756E6464
:10405E0000424E4F30387820696E6974206661696F
:06406E006C73212100002B
:00000001FF
