:100000000C946E010C9496010C9496010C9496013C
:100010000C9496010C9496010C9496010C94960104
:100020000C9496010C9496010C9496010C949601F4
:100030000C9496010C9496010C9496010C949601E4
:100040000C9410150C9496010C94DE140C94B814B6
:100050000C9496010C9496010C9496010C949601C4
:100060000C945A150C949601084AD73B3BCE016E6E
:1000700084BCBFFDC12F3D6C74319ABD56833DDAFF
:100080003D00C77F11BED9E4BB4C3E916BAAAABE0E
:10009000000000803F07634236B79BD8A71A396833
:1000A0005618AEBAAB558C1D3CB7CC5763BD6DED41
:1000B000FD753EF6177231BF000000803F0800005A
:1000C00000BE922449123EABAAAA2ABECDCCCC4C8B
:1000D0003E00000080BEABAAAAAA3E00000000BFFE
:1000E000000000803F0000000000084178D3BB43BF
:1000F00087D1133D190E3CC3BD4282AD2B3E68EC47
:100100008276BED98FE1A93E4C80EFFFBE01C4FFCD
:100110007F3F00000000000000010800060400010D
:1001200000000000240027002A0000000000250035
:1001300028002B00000000002300260029000404F2
:10014000040404040404020202020202030303037F
:10015000030301020408102040800102040810205B
:100160000102040810200000000800020100000342
:1001700004070000000000000000205357205665CF
:100180007273696F6E2050617463683A2030780032
:10019000205357204275696C64204E756D626572FC
:1001A0003A203078002053572050617274204E75E9
:1001B0006D6265723A203078002053572056657280
:1001C00073696F6E204D696E6F723A2030780053FC
:1001D000572056657273696F6E204D616A6F723A6F
:1001E000203078004661696C656420746F2061631B
:1001F000636573732045746865726E657420636F00
:100200006E74726F6C6C6572004500008200004075
:10021000002053504920494E542074696D656F7514
:1002200074005350492057616974004779726F2DEB
:10023000766563746F720057616B652D7265706FC0
:1002400072740053656E736F722D7265706F727485
:1002500000436F6E74726F6C0045786563757461EE
:10026000626C6500436F6D6D616E64002043686170
:100270006E6E656C3A00204C656E6774683A0020BB
:100280005B436F6E74696E756564207061636B6546
:10029000745D20003000200020426F64793A003005
:1002A0000020004865616465723A00300020004813
:1002B00065616465723A004932432074696D656F07
:1002C0007574004D452043616C207265706F7274C7
:1002D00020666F756E6421002100791611241FBEFF
:1002E000CFEFD8E0DEBFCDBF12E0A0E0B1E0EAE1A1
:1002F000FAE402C005900D92A43DB107D9F726E0BB
:10030000A4EDB2E001C01D92AE3CB207E1F711E0EE
:10031000CEE6D1E004C02197FE010E94EF24CD3645
:10032000D107C9F70E9411170C940B250C940000FB
:1003300008950895CF93DF9320919A042223C1F06A
:10034000FC0120812223A1F0CAE9D4E0A6E9B4E0AF
:100350009C012C5F3F4F899141919D918427892376
:1003600039F4E217F307B9F781E0DF91CF910895EF
:1003700080E0FBCF80E480937C0080917A008064F1
:1003800080937A0080917A0086FDFCCF809178007E
:10039000909179000895EF92FF920F931F93CF935E
:1003A000DF938C017B01D0E0C0E0F701EC0FFD1F73
:1003B0006491662361F0D801ED91FC910190F08188
:1003C000E02DC8010995892B11F02196EECFCE01C1
:1003D000DF91CF911F910F91FF90EF900895AF9211
:1003E000BF92CF92DF92EF92FF920F931F93CF9322
:1003F000DF936C017B018B01040F151FEB015E0184
:10040000AE18BF08C017D10759F06991D601ED9118
:10041000FC910190F081E02DC6010995892B79F7B7
:10042000C501DF91CF911F910F91FF90EF90DF9069
:10043000CF90BF90AF900895FC01538D448D252F30
:1004400030E0842F90E0821B930B541710F0CF966E
:10045000089501970895FC01918D828D981761F0A0
:10046000A28DAE0FBF2FB11D5D968C91928D9F5FB7
:100470009F73928F90E008958FEF9FEF0895FC0196
:10048000918D828D981731F0828DE80FF11D858D49
:1004900090E008958FEF9FEF0895FC01918D228DDC
:1004A000892F90E0805C9F4F821B91098F73992761
:1004B00008958CEE94E00E944D0221E0892B09F40E
:1004C00020E0822F089580E090E0892B29F00E949F
:1004D000590281110C9400000895FC01A48DA80F0D
:1004E000B92FB11DA35ABF4F2C91848D90E0019676
:1004F0008F739927848FA689B7892C93A089B18996
:100500008C91837080648C93938D848D981306C036
:100510000288F389E02D80818F7D80830895EF929A
:10052000FF920F931F93CF93DF93EC0181E0888FAD
:100530009B8D8C8D98131AC0E889F989808185FF7D
:1005400015C09FB7F894EE89FF896083E889F9891F
:1005500080818370806480839FBF81E090E0DF9121
:10056000CF911F910F91FF90EF900895F62E0B8D74
:1005700010E00F5F1F4F0F731127E02E8C8D8E112F
:100580000CC00FB607FCFACFE889F989808185FF96
:10059000F5CFCE010E946D02F1CFEB8DEC0FFD2F58
:1005A000F11DE35AFF4FF0829FB7F8940B8FEA8951
:1005B000FB8980818062CFCFCF93DF93EC01888D60
:1005C0008823B9F0AA89BB89E889F9898C9185FDCE
:1005D00003C0808186FD0DC00FB607FCF7CF8C915C
:1005E00085FFF2CF808185FFEDCFCE010E946D02A5
:1005F000E9CFDF91CF910895833081F028F48130E5
:1006000099F08230A9F008958730A9F08830C9F0B8
:100610008430B1F4809180008F7D03C08091800090
:100620008F7780938000089584B58F7784BD089577
:1006300084B58F7DFBCF8091B0008F778093B00021
:1006400008958091B0008F7DF9CFCF93DF93282F4D
:1006500030E0F901EA59FE4F8491F901EE5AFE4F5C
:10066000D491F901E25CFE4FC491CC23A1F0811139
:100670000E94FC02EC2FF0E0EE0FFF1FEC5CFE4F3F
:10068000A591B491EC91ED2381E090E009F480E034
:10069000DF91CF91089580E090E0FACF1F93CF9340
:1006A000DF93282F30E0F901EA59FE4F8491F901D8
:1006B000EE5AFE4FD491F901E25CFE4FC491CC2377
:1006C000A9F0162F81110E94FC02EC2FF0E0EE0F32
:1006D000FF1FE65DFE4FA591B4918FB7F894EC91A2
:1006E000111108C0D095DE23DC938FBFDF91CF912D
:1006F0001F910895DE2BF8CFCF93DF9390E0FC019C
:10070000EE5AFE4F2491825C9E4FFC018491882317
:10071000C9F090E0880F991FFC01E05EFE4FA591A3
:10072000B491FC01E65DFE4FC591D49161110DC0FD
:100730009FB7F8948C91209582238C9388812823ED
:1007400028839FBFDF91CF910895623051F49FB706
:10075000F8943C91822F809583238C93E8812E2BF3
:10076000EFCF8FB7F894EC912E2B2C938FBFEACF5D
:100770001F93CF93DF93182FEB0161E00E947C035E
:10078000209739F460E0812FDF91CF911F910C9475
:100790004E03CF3FD10511F461E0F5CFE12FF0E03A
:1007A000EA59FE4FE491E33031F140F4E130B1F029
:1007B000E230E1F0C038D1057CF7E4CFE73029F131
:1007C000E83059F1E430B1F7809180008062809385
:1007D0008000D0938B00C0938A0004C084B58068E9
:1007E00084BDC7BDDF91CF911F91089584B580620C
:1007F00084BDC8BDF7CF8091800080688093800061
:10080000D0938900C0938800EDCF8091B0008068BC
:100810008093B000C093B300E5CF8091B0008062B8
:100820008093B000C093B400DDCF3FB7F8948091BF
:10083000410390914203A0914303B091440326B534
:10084000A89B05C02F3F19F00196A11DB11D3FBF08
:10085000BA2FA92F982F8827BC01CD01620F711DD7
:10086000811D911D42E0660F771F881F991F4A95D1
:10087000D1F708958F929F92AF92BF92CF92DF925D
:10088000EF92FF924B015C010E9415046B017C0109
:100890000E9415046C197D098E099F09683E7340FA
:1008A00081059105A8F321E0821A9108A108B108F9
:1008B00088EEC80E83E0D81EE11CF11C811491045F
:1008C000A104B10429F7FF90EF90DF90CF90BF9083
:1008D000AF909F908F90089520911D03260F33278E
:1008E000331F21323105ECF42091E604FC0190E045
:1008F00080E0243069F082E00895A0911D032191E9
:10090000AC0143505D4FA40FB52FB11D2C93019640
:10091000861798F380911D03680F60931D0380E094
:10092000089581E008951092E60481E08093C50463
:100930001092C00461E082E10E944E0361E083E115
:100940000E944E03E9EBF0E080818E7F80838081FE
:100950008D7F808388E48093B80085E48093BC0019
:100960000895CF93DF9391E09093FC028823B9F030
:10097000C091B800D091BA008091BC008A7B80936E
:10098000BC0060E082E10E944E0360E083E10E94CF
:100990004E030E949304D093BA00C093B800DF9135
:1009A000CF910895CF92DF92EF92FF920F931F9312
:1009B000CF93DF93D82FC62F613208F098C00E94E2
:1009C00015046B017C018091E60481116BC081E00C
:1009D0008093E6048093C5049FEF9093C404109223
:1009E000C3049C0F9093C2048093C1048091C104FE
:1009F000DD0FD82BD093C1048091C004813009F061
:100A000078C01092C0040E9415046B017C01809193
:100A1000C1048093BB008091E8049091E904A09107
:100A2000EA04B091EB04892B8A2B8B2BA1F00E9456
:100A300015040091E8041091E9042091EA04309132
:100A4000EB046C197D098E099F0906171707280703
:100A5000390708F448C08091BC0083FDD8CF85ECED
:100A60008093BC000E9415046B017C018091E60418
:100A7000813009F440C08091C3048C1710F4C091F8
:100A8000C304E0EAF4E0A6ECB4E080E08C1355C0C7
:100A90008C2FDF91CF911F910F91FF90EF90DF90FE
:100AA000CF9008958091E8049091E904A091EA0420
:100AB000B091EB04892B8A2B8B2B09F484CF0E94F5
:100AC00015040091E8041091E9042091EA043091A2
:100AD000EB046C197D098E099F0906171707280773
:100AE000390708F070CF8091E7040E94B104C0E09C
:100AF000CFCF85EEB5CF8091E8049091E904A09125
:100B0000EA04B091EB04892B8A2B8B2B09F4AECF2E
:100B10000E9415040091E8041091E9042091EA0470
:100B20003091EB046C197D098E099F090617170790
:100B30002807390708F09ACFD6CF91919D938F5F00
:100B4000A5CF0895E091900580918F05E81730F4C6
:100B5000F0E0EA53FB4F808190E008958FEF9FEF24
:100B600008959091900580918F052FEF3FEF981792
:100B700048F4E92FF0E0EA53FB4F208130E09F5F1B
:100B800090939005C901089580918F0590919005EB
:100B9000891B990B0895CF92DF92EF92FF920F93EA
:100BA0001F93CF93DF937C01CB018A0120919F0497
:100BB000222389F0EB016B01C40ED51ECC15DD0597
:100BC00069F06991D701ED91FC910190F081E02DE0
:100BD000C7010995F3CF642F0E946C04C801DF910F
:100BE000CF911F910F91FF90EF90DF90CF900895DC
:100BF000CF93DF931F92CDB7DEB7698320919F0417
:100C00002223F9F020918D05203258F021E030E0C8
:100C1000FC013383228390E080E00F90DF91CF913D
:100C2000089580918E05E82FF0E0E452FD4F998100
:100C300090838F5F80938E0580938D0581E090E097
:100C4000ECCF61E0CE0101960E946C04F7CFCF9209
:100C5000DF92EF92FF920F931F93CF93DF93D09188
:100C60008D0581E0D13208F09CC0C0919E040E94A5
:100C700015046B017C018091E60481116CC082E057
:100C80008093E60481E08093C5048FEF8093C404D1
:100C90001092C304D093C204ACEDB2E0E0EAF4E0F9
:100CA00080E0D8138DC01092C1048091C104CC0F94
:100CB000C82BC093C1048091C004813009F084C066
:100CC0001092C0040E9415046B017C018091C10444
:100CD0008093BB008091E8049091E904A091EA041C
:100CE000B091EB04892B8A2B8B2BA1F00E94150469
:100CF0000091E8041091E9042091EA043091EB049A
:100D00006C197D098E099F090617170728073907EF
:100D100008F442C08091BC0083FDD8CF85EC80935D
:100D2000BC000E9415046B017C018091E6048230B6
:100D300009F44CC08091C4048F3F09F469C08091CC
:100D4000C404803209F466C08091C404803309F47D
:100D500063C084E026C08091E8049091E904A091EA
:100D6000EA04B091EB04892B8A2B8B2B09F483CFF7
:100D70000E9415040091E8041091E9042091EA040E
:100D80003091EB046C197D098E099F09061717072E
:100D90002807390708F06FCF8091E7040E94B1045B
:100DA00085E010928E0510928D0510929F04DF91C0
:100DB000CF911F910F91FF90EF90DF90CF9008950A
:100DC0009D9191938F5F6DCF85EEA9CF8091E804BF
:100DD0009091E904A091EA04B091EB04892B8A2B4D
:100DE0008B2B09F4A2CF0E9415040091E804109106
:100DF000E9042091EA043091EB046C197D098E0915
:100E00009F09061717072807390708F08ECFC4CFA8
:100E100080E0C7CF82E0C5CF83E0C3CF0F931F939D
:100E2000CF93DF9370E062537C4F2130A9F48A01A5
:100E3000075F1F4F30E020E0EB01FA01E230F105DF
:100E400078F0A991B991BA27AB27BA270A0F1B1FCF
:100E5000211D311D3297F2CF00E010E09801ECCF58
:100E6000FA01EE7F6E0F7F1F4E175F0769F0FB01DF
:100E7000408150E070E060E0762F652F542F4427CA
:100E8000040F151F261F371FA90166277727411555
:100E900051056105710519F022273327F1CF00951F
:100EA0001095E82FF0E0E253FC4F10830183DF91AF
:100EB000CF911F910F9108958EBD0DB407FEFDCF08
:100EC000089561E0809145030E944E03789408954F
:100ED000F89460E0809145030C944E030F931F93A8
:100EE000CF93DF93EC018B010E9468072097B9F044
:100EF0008AE30E945C071EBCF801CE01019739F01D
:100F00000DB407FEFDCF2EB51EBC2193F7CF219760
:100F1000C00FD11F0DB407FEFDCF8EB58883DF91C2
:100F2000CF911F910F910C9461071F93CF93DF9383
:100F3000182FC62FD42F0E9468078C2F8F71812BFA
:100F40000E945C078D2F0E945C07DF91CF911F915B
:100F50000C946107CF93C82FC0768091DB028C1769
:100F600099F043E06FE180EA0E949507C093DB02AD
:100F70004C2F50E085E0559547958A95E1F76FE154
:100F800080E8CF910C949507CF910895CF93DF938C
:100F9000C82FD62F0E94AA074D2F6C2F80E4DF9117
:100FA000CF910C949507CF93DF93C82FD72F0E9432
:100FB000C6076D2F81E08C0FDF91CF910C94C6078F
:100FC000CF93C82F0E94AA070E9468078C2F8F71A9
:100FD0000E945C0780E00E945C07C7FF03C080E0BE
:100FE0000E945C07CEB50E9461078C2FCF910895B7
:100FF000CF93DF93EC0140E86FE180E80E94950712
:1010000040E86FE180EA0E9495074AE06CE180EADF
:101010000E94950760E07CE082E00E94D307BE0159
:10102000745F86E00E94D30740E060E08AE70E9498
:1010300095070E9468072097B1F08AE70E945C0735
:101040008091CE038EBDEFECF3E0C253DC4FEC1782
:10105000FD0731F081910DB407FEFDCF8EBDF7CFB6
:101060000DB407FEFDCF0E94610748E06FE180E804
:101070000E949507D0E0C0E08CE10E94E0078A70F2
:1010800029F42196C83E83E0D807B1F78CE10E948D
:10109000E00781FD03C0C83ED34039F448E06FE16A
:1010A00080EADF91CF910C949507DF91CF9108955D
:1010B00090E080E0089508958EBD00000DB407FE15
:1010C000FDCF8EB508958CBD9DBD0895CF93DF9360
:1010D000C091A303D091A403809148018823F9F023
:1010E000D7FD10C05C9AC091A303D091A403BE01A8
:1010F00083E00E94B803D093DA02C093D902DF9153
:10110000CF9108955C988091A3039091A403919549
:10111000819591099093A4038093A303E4CF1C16B7
:101120001D0694F470E060E089E00E94B803BE01FF
:1011300083E00E94B8038091A3039091A40390934D
:10114000DA028093D902DBCFD195C195D109D09332
:10115000A403C093A30370E060E083E00E94B8039F
:10116000BE0189E0E6CFDC01ED91FC910190F081B8
:10117000E02D0994CF93DF93E8ECF6E0858183605E
:10118000C181D28123813481C22BD32BD168C82B5A
:10119000808191E090939F0480939E0410928E052D
:1011A00010928D0561E070E081E995E00E94B3083E
:1011B0006D2F81E995E00E94F8056C2F81E995E09B
:1011C0000E94F80581E995E0DF91CF910C94270604
:1011D0000F931F93FC0100E012E12AE730E090E05A
:1011E000401751076207730740F436952795179506
:1011F00007959F5F9630A1F797E0292F286B2695DA
:1012000020839095917091831F910F910895CF93B2
:10121000DF93C8ECD6E0888191E090939F0480939F
:101220009E0410928E0510928D0570E060E081E9B9
:1012300095E00E94B30881E995E00E94270662E0EC
:1012400088810E94D2041092900580938F0581E9D5
:1012500095E00E94B105C82F81E995E00E94B10593
:1012600020E0822B9C2BDF91CF910895CF92DF92CB
:10127000EF92FF92CF93C62FBC01990F880B990B69
:101280000E94B6216B017C016C2F70E07195619515
:101290007109072E000C880B990B0E94B6219B0147
:1012A000AC0160E070E080E090E40E9407239B01C5
:1012B000AC01C701B6010E949A22CF91FF90EF9036
:1012C000DF90CF900895DC0196E0FB0101900D9234
:1012D0009A95E1F70895BC018EEC93E00E946309B2
:1012E0006FE573E084ED93E00C946309DC0194E016
:1012F000FB0101900D929A95E1F70895CF93DF934A
:10130000EB0144E050E0BC018AEE93E00E94F5243A
:10131000892B49F464EE73E0CE010E94630981E0F9
:10132000DF91CF91089580E0FBCFDF92EF92FF92A3
:101330000F931F93CF93DF937C01C62F142F052F9C
:10134000D22FD32E80E491E00E949A01882309F4E1
:1013500088C088EC93E00E946B0960E471E08CEE39
:1013600093E00E9476096AE974E088EE93E00E94B7
:10137000760980914001807F803EB9F080914001E4
:1013800090914101A0914201B09143018F3F9F4F45
:10139000AF4FBF4F51F044E050E060E471E08EEB9E
:1013A00093E00E94F524892B31F460E671E08EEC25
:1013B00093E00E94630988E08093DA031092DB03D4
:1013C00049E050E069E072E08CED93E00E94092072
:1013D0001092DE0381E18093E503D092F203D09373
:1013E000F3030093F0031093F1031092F4031092AF
:1013F000F6031092F7030C2F10E0A801B70188EF55
:1014000093E00E9402258CE18C0F8093DF03109201
:10141000E6031092E70380E48093E2031092E30373
:101420008093E40320E044E150E06EE088E10E9414
:101430000E071092F403C85FC093F503A801405F44
:101440005F4F21E06AE188E20E940E07C8018A9698
:10145000DF91CF911F910F91FF90EF90DF900C944F
:10146000F80782EC93E077CFFB0101900020E9F7C9
:101470003197AF01461B570BDC01ED91FC910280C7
:10148000F381E02D09948F929F92AF92BF92EF92D9
:10149000FF920F931F93CF93DF93CDB7DEB7A19742
:1014A0000FB6F894DEBF0FBECDBF7C01FA01CB01B1
:1014B00019A2223008F42AE08E010F5D1F4F822E00
:1014C000912CB12CA12CBF01A50194010E94AE2446
:1014D000F901CA016A300CF5605DD8016E938D0187
:1014E000232B242B252B79F790E080E0109721F017
:1014F000BD01C7010E94340AA1960FB6F894DEBF61
:101500000FBECDBFDF91CF911F910F91FF90EF9054
:10151000BF90AF909F908F900895695CDECF242F8D
:10152000462F50E070E060E00C94430A8F929F9247
:10153000AF92BF92CF92DF92EF92FF920F931F93E1
:10154000CF93DF937C01EB016C0182E0C80ED11CCC
:101550004701E5E08E0E911C10E000E0F60161917C
:101560006F014AE050E0CE010E948F0A5C01E881E1
:10157000F9810190F081E02D6EE2CE0109958A0D8E
:101580009B1D080F191FC814D90441F74AE050E009
:10159000F7016581CE010E948F0A800F911FDF91B4
:1015A000CF911F910F91FF90EF90DF90CF90BF9060
:1015B000AF909F908F90089560E971E00C94340A89
:1015C000CF93DF93BC018CEE94E00E94340AEC01CF
:1015D0008CEE94E00E94DC0A8C0F9D1FDF91CF916E
:1015E0000895CF93DF9340E150E0682F8CEE94E0B4
:1015F0000E948F0AEC018CEE94E00E94DC0A8C0FB2
:101600009D1FDF91CF9108950F931F93CF93DF9389
:10161000EC010E94CB018C01CE010E94DC0A800FFC
:10162000911FDF91CF911F910F9108951F93CF9339
:10163000DF93E0919D05F0919E054091A505609195
:10164000A3057091A4052091A2058091A205909117
:10165000A305A091A405B091A50580939006909351
:101660009106A0939206B09393069091A805D0910D
:10167000AA058091A60530919F053530B1F590916E
:10168000A105322F292F30937D0620937C0670937D
:101690007F0660937E06982F842F90938106809317
:1016A00080068091A7059091A8059093830680936A
:1016B00082068091A9059091AA059093890680934E
:1016C00088068091AB059091AC0590938B06809332
:1016D0008A068091AD059091AE0590938D0680931A
:1016E0008C06DF91CF911F910895FF773497C091B9
:1016F000AB0593706091AA057091AB054091AC0564
:101700005091AD052091AE053091AF05EF30F10558
:10171000FCF0A091B005B091B1057197DCF0E091BB
:10172000B205F091B3058130C1F4892F90E0909318
:1017300063068093620670935D0660935C06509327
:101740005F0640935E063093610620936006C9CF22
:10175000B0E0A0E0F0E0E0E0E6CF843099F4892F3B
:1017600090E090936B0680936A0670936506609391
:10177000640650936706409366063093690620938B
:101780006806AFCF823099F4892F90E0909373066A
:101790008093720670936D0660936C0650936F068B
:1017A00040936E0630937106209370069ACF833073
:1017B00099F4892F90E090937B0680937A0670933A
:1017C00075066093740650937706409376063093BF
:1017D00079062093780685CF853031F0883021F066
:1017E00018ED180F1230D8F4892F90E090938706E7
:1017F0008093860670937D0660937C0650937F06E7
:1018000040937E063093810620938006B093830632
:10181000A0938206F0938506E093840662CF81311F
:1018200029F430938F0620938E065BCF833119F411
:10183000D093940656CF8E3199F4C0939506ACEAB6
:10184000B5E090E080E02D91E0919606F09197064A
:10185000E80FF91F2083019689309105A1F741CF48
:10186000843169F47093A3066093A2065093A50691
:101870004093A4063093A7062093A60632CF853165
:1018800069F47093A9066093A8065093AB06409341
:10189000AA063093AD062093AC0623CF863169F4B7
:1018A0007093AF066093AE065093B1064093B006B6
:1018B0003093B3062093B20614CF813F09F011CFC5
:1018C00080915106882341F068ED72E080914F06C7
:1018D000909150060E94040B8091A805873009F072
:1018E00000CF80915106882341F063EC72E0809133
:1018F0004F06909150060E94040B8091AB05809397
:101900009806EFCECF93C4E680914C0690914D0699
:10191000DC01ED91FC910084F185E02D099518160C
:101920001906BCF061E070E080E090E00E943A04AB
:10193000C15051F780915106882349F067EB72E05E
:1019400080914F06909150060E94040B80E0CF9149
:10195000089581E0FCCF8F929F92BF92CF92DF9249
:10196000EF92FF920F931F93CF93DF9300D0CDB7E9
:10197000DEB780914C0690914D06892B09F067C126
:1019800080915A060E942503019709F46BC040918B
:101990005406509155066091560670915706CE0137
:1019A00001960E94E80889819A810E94630860E09C
:1019B000809158060E944E0380E00E945C08082F28
:1019C00080E00E945C08182F80E00E945C08F82EDE
:1019D00080E00E945C0800939D0510939E05F092A4
:1019E0009F058093A005C8019F770097E9F5809136
:1019F00051068823B9F16FEA72E080914F06909109
:101A000050060E94CB010DE915E051EAE52E55E0A4
:101A1000F52E6DEA72E080914F06909150060E947B
:101A2000CB01D8018D918D01803140F46BEA72E0D9
:101A300080914F06909150060E94CB0140E150E00A
:101A4000F8013197608180914F06909150060E9475
:101A50008F0AE016F106E9F680914F069091500644
:101A60000E94DC0AF12C22C08C0104501109F12CD7
:101A7000E12CE016F10678F48FEF0E945C08B0E8E4
:101A8000EB16F10420F4F701E356FA4F8483EFEFED
:101A9000EE1AFE0AEECF61E0809158060E944E03D6
:101AA000F0905106F11011C0FF24F3948F2D0F9088
:101AB0000F90DF91CF911F910F91FF90EF90DF90EA
:101AC000CF90BF909F908F90089500919D051091A9
:101AD0009E0563EA72E080914F06909150060E9445
:101AE000CB014DE9C42E45E0D42E61EA72E080912D
:101AF0004F06909150060E94CB01D6018D916D0149
:101B0000803140F46FE972E080914F069091500669
:101B10000E94CB0140E150E0F60131976081809155
:101B20004F06909150060E948F0AB1EACB16B5E09D
:101B3000DB06D9F63CEFB32EB00EE8E2EB1510F45D
:101B400028E2B22E68E972E080914F06909150062B
:101B50000E94CB0191EAC92E95E0D92EE12C80910B
:101B60004F0690915006BE1401F166E972E00E94A2
:101B7000CB014601D6018C91803140F464E972E0DA
:101B800080914F06909150060E94CB01BFEFCB1A77
:101B9000DB0A40E150E0F401608180914F069091B2
:101BA00050060E948F0AE394DACF17FF05C06FE753
:101BB00072E00E94040B1F7766E772E080914F0687
:101BC000909150060E94CB01A80170E060E02AE0ED
:101BD00080914F06909150060E94430A6CE672E095
:101BE00080914F06909150060E94CB0160919F0515
:101BF00080914F069091500661110BC064E672E02F
:101C00000E94CB0180914F06909150060E94DC0A01
:101C10004DCF613019F469E572E0F2CF623019F40A
:101C200061E572E0EDCF633019F463E472E0E8CF70
:101C3000643019F467E372E0E3CF653019F46BE2C6
:101C400072E0DECF4AE050E00E948F0ADBCF64E012
:101C500080914E060E94D2041092900580938F05C9
:101C60000E94820C882309F4FDCE80914C0690914D
:101C70004D06DC01ED91FC910284F385E02D099580
:101C8000F82E80914C0690914D06DC01ED91FC916F
:101C90000284F385E02D0995E82E80914C06909101
:101CA0004D06DC01ED91FC910284F385E02D099550
:101CB000182F80914C0690914D06DC01ED91FC911E
:101CC0000284F385E02D0995F0929D05E0929E0532
:101CD00010939F058093A00500E01E2D0F291F770C
:101CE0000115110509F4BECE04501109D12CC12CE7
:101CF0000115110509F4D8CE78010D31110518F040
:101D00008CE1E82EF12C64E06E0D80914E060E946D
:101D1000D2041092900580938F050E94820C882334
:101D200009F4C2CE80914C0690914D06DC01ED91F4
:101D3000FC910284F385E02D099580914C069091E9
:101D40004D06DC01ED91FC910284F385E02D0995AF
:101D500080914C0690914D06DC01ED91FC9102843E
:101D6000F385E02D099580914C0690914D06DC019C
:101D7000ED91FC910284F385E02D0995B12CBE1400
:101D80001F04C0F480914C0690914D06DC01ED914A
:101D9000FC910284F385E02D0995B0E8CB16D104BF
:101DA00038F4F601E356FA4F8483F60131966F0159
:101DB000B394E5CF0E191F099BCFCF9380915A069C
:101DC0008F3F49F40E94AB0CC82F811109C0C0E0BD
:101DD0008C2FCF9108950E942503019799F7F7CF93
:101DE00080919F05833039F48091A1058B3F79F76D
:101DF0000E94160BEDCF8230A1F58091A105813FA5
:101E0000C9F48091A305873019F78091A6058093C6
:101E100098068091A705809399068091A8058093E4
:101E20009A068091A90580939B068091AA058093CC
:101E30009C06CECF8C3F61F68091A20580939D06D3
:101E40008091A6059091A705A091A805B091A9053C
:101E500080939E0690939F06A093A006B093A10640
:101E6000B7CF853009F0B3CFC3CFCF92DF92EF92D7
:101E7000FF920F931F93CF93DF9300D0CDB7DEB7C0
:101E8000082FF62E14E0160F80914C0690914D0607
:101E9000009709F073C02DE7E22E80915A060E9448
:101EA0002503892B21F180915106882341F062E2BC
:101EB00072E080914F06909150060E94040B61E001
:101EC00070E080E090E00E943A04EA94E110E5CFEF
:101ED00090915106992309F445C062E172E0809126
:101EE0004F06909150060E94040B90E03BC0409139
:101EF0005406509155066091560670915706CE01D2
:101F000001960E94E80889819A810E94630860E036
:101F1000809158060E944E03812F0E945C0880E049
:101F20000E945C08802F0E945C08A02FB0E0AF5D8B
:101F3000B94F8C9191E0980F9C930E945C0891EAB4
:101F4000C92E95E0D92E10E0D6018D916D010E9429
:101F50005C081F5FF112F8CF61E0809158060E9483
:101F60004E0391E0892F0F900F90DF91CF911F9139
:101F70000F91FF90EF90DF90CF90089520914E0643
:101F800031E030939F0420939E0410928E051092AE
:101F90008D05612F70E00E94B30870E060E08091D1
:101FA0004C0690914D060E94B30880914C0690918A
:101FB0004D06DC01ED91FC910190F081E02D602F48
:101FC000099580914C0690914D06DC01ED91FC91B4
:101FD0000190F081E02DA02FB0E0AF5DB94F6C9182
:101FE00021E0260F2C93099581EAC82E85E0D82E92
:101FF00010E080914C0690914D06F60161916F01C1
:10200000DC01ED91FC910190F081E02D09951F5FBD
:10201000F112EFCF80914C0690914D060E94270659
:1020200091E0882309F49ECF60CF0F931F93CF9345
:10203000DF93D62FC72FBC018CEE94E00E94340AA8
:102040000D2F1C2FC0E0F80161918F014AE050E094
:102050008CEE94E00E948F0AC33029F06EE28CEE81
:1020600094E00E948F02CF5FC43069F78CEE94E059
:10207000DF91CF911F910F910C94DC0A85ED809335
:10208000BC008091E8049091E904A091EA04B09129
:10209000EB040796A11DB11D23E0B695A795979572
:1020A00087952A95D1F72091BC0024FD03C010929A
:1020B000E60408954091E8045091E9046091EA042F
:1020C0007091EB04452B462B472B69F30097A10534
:1020D000B10541F02AE22A95F1F700C00197A10964
:1020E000B109E1CF8091E7040C94B1040F931F93E1
:1020F000CF938C0180E691E00E946B09EEECF3E057
:1021000088E08487C6E0C58748E050E068E171E078
:102110008CED93E00E940920EEEEF3E0DF011D92CA
:10212000CA95E9F76FE573E084EE93E00E946309D6
:10213000B80184EF93E00E9476096AE974E08AEEC0
:1021400093E00E9476098AE290E0CF911F910F916F
:102150000C94F807FF920F931F93CF93DF93EC013A
:10216000F62E08811981C8010E941220F81621F06C
:102170006F2DC8010E941A20CE01DF91CF911F91CF
:102180000F91FF900895EF92FF920F931F93CF93BB
:10219000DF9300D0CDB7DEB780E5E82E81E0F82EE2
:1021A0000AE010E01A830983F70161917F01CE01F3
:1021B00001960E94AA100F5F1F4F0831110591F779
:1021C00080E591E00F900F90DF91CF911F910F91DB
:1021D000FF90EF900895EF92FF920F931F93CF938C
:1021E000DF9300D0CDB7DEB784E4E82E81E0F82E8F
:1021F00008E210E01A830983F70161917F01CE01A3
:1022000001960E94AA100F5F1F4F0433110591F72A
:1022100084E491E00F900F90DF91CF911F910F9187
:10222000FF90EF9008954F925F926F927F928F92FE
:102230009F92AF92BF92CF92DF92EF92FF92CF9395
:10224000DF93CDB7DEB760970FB6F894DEBF0FBE51
:10225000CDBF3A832983F9018081803809F010C10C
:102260008181813809F00CC182818F3709F008C162
:1022700083818E3F09F0A7C2E580F6809091B90373
:10228000D780D092B90381E09D1101C080E0809396
:10229000BA03E981FA8160857185072E000C880BED
:1022A000990B0E94B6212AE037ED43E25CE30E94DD
:1022B0009A226093A9037093AA038093AB0390932F
:1022C000AC03D0FE19C0B701FF0C880B990B0E941C
:1022D000B6212DEC3CEC4CEC5DE30E949A222DECF7
:1022E0003CEC4CEC5DE30E94072187FD05C080912A
:1022F0003A01813009F0D9C086E680933B0120E0A5
:1023000030E048EC52E46091AD037091AE038091EF
:10231000AF039091B0030E949A220E947E216093A5
:1023200013017093140180915103882309F4C0C0F4
:1023300081E080939F0480E680939E0410928E0536
:1023400010928D0562E070E081E995E00E94B3088B
:1023500081E995E00E94270662E080E60E94D204AF
:102360001092900580938F058230F0F381E995E01B
:102370000E94B1058093160181E995E00E94B105A4
:102380008093150181E080939F0480E680939E04F2
:1023900010928E0510928D056CE170E081E995E058
:1023A0000E94B30881E995E00E94270662E080E67A
:1023B0000E94D2041092900580938F058230F0F332
:1023C00081E995E00E94B1058093180181E995E0CB
:1023D0000E94B105809317018091B3038093190186
:1023E0008091D90280931A01E0E1F1E090E080E071
:1023F00022E03191830F911D2F5F2D30D1F7809313
:102400001B012FE037E248EB52E26EE08EE091E0F4
:102410000E94950980914C01811104C080914D0169
:10242000882361F18091D40291E0980F9093D402B7
:10243000833020F16091B4037091B5038091B603AD
:102440009091B7030E94852160930501E2E0F1E0DD
:1024500090E080E022E03191830F911D2F5F2D30BD
:10246000D1F780930D012FE037E248EB52E26EE0A6
:1024700080E091E00E9495091092D4021092A2038C
:1024800060960FB6F894DEBF0FBECDBFDF91CF913F
:10249000FF90EF90DF90CF90BF90AF909F908F9084
:1024A0007F906F905F904F90089510923B0127CFDF
:1024B00080914F03882309F479C10E94DD0E88239F
:1024C00009F48ACFF091B406F9836F2F80918206C8
:1024D000909183060E9436092B013C01698180910D
:1024E0007C0690917D060E9436094B015C01698152
:1024F00080917E0690917F060E9436096D837E83CF
:102500008F839887698180918006909181060E94CF
:10251000360969837A838B839C83A3019201C3016B
:10252000B2010E949A226B017C01A5019401C501B0
:10253000B4010E949A229B01AC01C701B6010E941E
:1025400029206B017C012D813E814F815885CA0174
:10255000B9010E949A229B01AC01C701B6010E94F9
:1025600029206B017C0129813A814B815C81CA0160
:10257000B9010E949A229B01AC01C701B6010E94D9
:1025800029200E945D236B017C01AC019B01C301EA
:10259000B2010E940C2169877A878B879C87A701EB
:1025A0009601C501B4010E940C212B013C01A70139
:1025B00096016D817E818F8198850E940C214B014F
:1025C0005C01A701960169817A818B819C810E94BF
:1025D0000C2169837A838B839C83A5019401C501B7
:1025E000B4010E949A226D837E838F83988729810C
:1025F0003A814B815C81CA01B9010E949A222D81E6
:102600003E814F8158850E9429209B01AC010E9488
:1026100029209B01AC0160E070E080E89FE30E940C
:1026200028206D877E878F87988B29813A814B81FF
:102630005C8169857A858B859C850E949A226B01D5
:102640007C01A5019401C301B2010E949A229B0161
:10265000AC01C701B6010E9429209B01AC010E9478
:1026600029202D853E854F8558890E94A82021EE7E
:102670003EE245E652E40E949A226B017C01DC01B5
:10268000CB01B0588093D5029093D602A093D70285
:10269000B093D80220E030E0A901C701B6010E9442
:1026A0008D221816D4F420E030E044E353E4C7014F
:1026B000B6010E940721181684F0A701960160E078
:1026C00070E084EB93E40E9428206093D50270931D
:1026D000D6028093D7029093D802A3019201C3013E
:1026E000B2010E949A222D813E814F8158850E941D
:1026F00029209B01AC010E9429209B01AC0160E0D4
:1027000070E080E89FE30E9428206B017C01A30118
:10271000920169857A858B859C850E949A222B017E
:102720003C0129813A814B815C81C501B4010E9441
:102730009A229B01AC01C301B2010E9429209B0196
:10274000AC010E942920A70196010E94A8206B01DC
:102750007C0120E030E040E251E46091D5027091CC
:10276000D6028091D7029091D8020E949A220E94AC
:102770007E216D83798321EE3EE245E652E4C70176
:10278000B6010E949A2220E030E040E251E40E942B
:102790009A220E947E218D8180931501E981E09328
:1027A0001601609317017093180116CE8FE0809385
:1027B000150187E28093160188EB8093170182E26E
:1027C0008093180109CE8C3F09F055C0E981FA8148
:1027D0008581809350018681809355018781809304
:1027E0005101808580935401618570E090E080E024
:1027F0000E94B42160935601709357018093580151
:1028000090935901E981FA818285938590935301D0
:1028100080935201648570E090E080E00E94B421D2
:102820002AE037ED43E25CE30E949A2260935A016A
:1028300070935B0180935C0190935D010E94C310D3
:102840006091550180915101681B770B072E000C98
:10285000880B990B0E94B62120E030E040EA50E45A
:102860000E940C2160935603709357038093580382
:102870009093590305CE8B3F09F002CEE981FA818E
:10288000858180FF54C091E09093440181FF52C044
:1028900091E09093450182FF50C091E090934601F2
:1028A00083FF4EC091E09093470184FF4CC091E0BC
:1028B0009093480185FF4AC091E09093490186FFBB
:1028C00048C091E090934A0187FF46C081E0809321
:1028D0004B01E981FA81868180934E01808580FFDA
:1028E0003EC091E090934F0181FF3CC091E09093F6
:1028F0004C0182FF3AC081E080934D010E94EB10B1
:10290000F0E0E0E060960FB6F894DEBF0FBECDBFFA
:10291000DF91CF91FF90EF90DF90CF90BF90AF907D
:102920009F908F907F906F905F904F90099410923E
:102930004401ACCF10924501AECF10924601B0CF0A
:1029400010924701B2CF10924801B4CF10924901C2
:10295000B6CF10924A01B8CF10924B01BACF109265
:102960004F01C2CF10924C01C4CF10924D01C6CF7F
:102970001F920F920FB60F9211242F933F934F93F4
:102980005F936F937F938F939F93AF93BF93EF93D7
:10299000FF938CEE94E00E946D02FF91EF91BF9146
:1029A000AF919F918F917F916F915F914F913F91E7
:1029B0002F910F900FBE0F901F9018951F920F929E
:1029C0000FB60F9211242F938F939F93EF93FF9342
:1029D000E091FC04F091FD048081E0910205F0910A
:1029E000030582FD1BC09081809105058F5F8F7369
:1029F00020910605821741F0E0910505F0E0E451D1
:102A0000FB4F958F80930505FF91EF919F918F91DB
:102A10002F910F900FBE0F901F9018958081F4CFCB
:102A20001F920F920FB60F9211242F933F938F9303
:102A30009F93AF93BF938091520390915303A091C2
:102A40005403B09155033091400323E0230F2D37F9
:102A500058F50196A11DB11D2093400380935203A8
:102A600090935303A0935403B09355038091410373
:102A700090914203A0914303B09144030196A11D9C
:102A8000B11D8093410390934203A0934303B093FD
:102A90004403BF91AF919F918F913F912F910F90E0
:102AA0000FBE0F901F90189526E8230F0296A11DC8
:102AB000B11DD2CF1F920F920FB60F9211242F93F8
:102AC0003F934F935F936F937F938F939F93AF93B6
:102AD000BF93EF93FF938091B900887F803609F40C
:102AE0004AC0F0F5883209F4A7C018F5803109F41E
:102AF0009BC0B8F4882309F4F9C0883009F494C065
:102B0000FF91EF91BF91AF919F918F917F916F91C5
:102B10005F914F913F912F910F900FBE0F901F909B
:102B20001895883109F488C0803251F78093C40425
:102B300014C0803409F49DC040F48033B9F3883365
:102B4000F9F68093C40485ECB0C0803509F485C0E3
:102B5000883509F496C0883499F60E943E10D0CF8B
:102B6000883909F48CC038F5883729F050F4883654
:102B700011F0803729F683E08093E60410923F033A
:102B800057C0883809F47BC0803919F0803809F0C3
:102B9000B7CF80913F03803208F071C0E0913F03CE
:102BA00081E08E0F80933F038091BB00F0E0E15EF7
:102BB000FC4F80833DC0803B39F0E0F4803A09F45B
:102BC00079C0883A09F09CCF84E08093E6041092A3
:102BD0001E0310921D03E0918905F0918A05099565
:102BE00080911D0381110FC081E080931D0310921D
:102BF000FD0209C0803C09F4A6CF883C09F4A3CFAC
:102C0000883B09F07DCFE0911E0381E08E0F809319
:102C10001E03F0E0E350FD4F80818093BB00909154
:102C20001E0380911D0329C08091C1048093BB00C5
:102C300085EC8093BC0064CF9091C3048091C20462
:102C4000981758F5E091C30481E08E0F8093C30478
:102C5000F0E0E056FB4F8081E9CFE091C30481E0D2
:102C60008E0F8093C3048091BB00F0E0E056FB4FD1
:102C700080839091C3048091C2049817C8F285E8BC
:102C8000D8CFE091C30481E08E0F8093C30480917C
:102C9000BB00F0E0E056FB4F80838091C5048111BA
:102CA0005CCF81E08093C00484EA8093BC001092E2
:102CB000E60426CF85EC8093BC001092E604809158
:102CC0003F03803230F4E0913F03F0E0E15EFC4FDF
:102CD000108260913F0370E0E0918B05F0918C05CC
:102CE0008FE193E0099510923F030ACF1092C4043C
:102CF00034CFECEEF4E01382128288EE93E0A0E091
:102D0000B0E084839583A683B7832AE631E03183DC
:102D1000208325EC30E03587248724EC30E03787AA
:102D2000268720EC30E0318B208B21EC30E0338B98
:102D3000228B22EC30E0358B248B26EC30E0378B75
:102D4000268B118E128E138E148EE1E9F5E013821C
:102D5000128284839583A683B7838CE791E0918365
:102D600080831092900510928F0510928E0510921C
:102D70008D050E94930488E991E090938A058093E1
:102D8000890589E991E090938C0580938B05E8ECA7
:102D9000F6E088E4808380E094E09283818314826B
:102DA000138280E88583E2ECF6E08EE891E091837F
:102DB00080831282138214821582E1E2F6E086E0BB
:102DC000DF011D928A95E9F71092270610925106AD
:102DD0008EE090E09093B5068093B4068CE090E08E
:102DE0009093B7068093B60688E090E09093B9067A
:102DF0008093B8069093BB068093BA0689E090E072
:102E00009093BD068093BC0684E090E09093BF064B
:102E10008093BE068AE090E09093C1068093C0063E
:102E20000895CF93DF9300D000D000D0CDB7DEB7A8
:102E3000789484B5826084BD84B5816084BD85B595
:102E4000826085BD85B5816085BD80916E008160A1
:102E500080936E0010928100809181008260809347
:102E60008100809181008160809381008091800049
:102E70008160809380008091B10084608093B10074
:102E80008091B00081608093B00080917A0084606E
:102E900080937A0080917A00826080937A0080919A
:102EA0007A00816080937A0080917A0080688093B4
:102EB0007A001092C10062E087E00E947C0362E029
:102EC00086E00E947C0362E088E00E947C0361E06F
:102ED00084E00E947C0380914801882321F061E016
:102EE00089E00E947C031092900510928F05109249
:102EF0008E0510928D050E94930488E991E09093CD
:102F00008A058093890589E991E090938C058093E7
:102F10008B05E091FC04F091FD0482E08083E09158
:102F2000F804F091F9041082E091FA04F091FB04A6
:102F300083E3808310920405E0910005F091010580
:102F400086E08083E091FE04F091FF04808180613F
:102F50008083E091FE04F091FF048081886080838B
:102F6000E091FE04F091FF04808180688083E0910D
:102F7000FE04F091FF0480818F7D808311E0109327
:102F80009F0480E680939E0481E995E00E942706D5
:102F90008111F5C183E991E00E94E00A6DE971E0D9
:102FA0008CEE94E00E94340A20E140E650E060E0BC
:102FB00070E08CEE94E00E94430A8CEE94E00E9454
:102FC000DC0A80EB91E00E94E00A109351038091AB
:102FD0005103811171C10EE511E090E6892E91E057
:102FE000992EFF24F3942CE0222E3DEF332E4FE553
:102FF000E42ED8018D918D018093500361EE71E034
:103000008CEE94E00E94340A809150030E94F10AF1
:1030100080915003F0929F0480939E0410928E053D
:1030200010928D0581E995E00E9427068111BBC1B0
:1030300083E991E00E94E00A6BEF71E08CEE94E08E
:103040000E94340A809150030E94F10A8EE092E0BF
:103050000E94E00A8091500380934E0681E995E03A
:1030600090934D0680934C06BFEFB0935A06F092B2
:10307000A10561E081E00E94350F62E370E080E02D
:1030800090E00E943A040E94AB0C8111FCCF62E3F5
:1030900070E080E090E00E943A040E94AB0C811145
:1030A000FCCFE9EFE093A1051092A20562E082E077
:1030B0000E94350F0E94AB0C882309F46BC18091EC
:1030C000A105883F09F066C180915106882309F463
:1030D00070C06FEC71E080914F06909150060E9495
:1030E000CB0140E150E06091A30580914F069091A3
:1030F00050060E948F0A69EB71E080914F06909113
:1031000050060E94CB0140E150E06091A4058091FF
:103110004F06909150060E948F0A4090A50550904E
:10312000A6056090A7057090A80565EA71E08091FA
:103130004F06909150060E94CB0120E1B301A201FD
:1031400080914F06909150060E94430A4090A90535
:103150005090AA056090AB057090AC0560E971E0F5
:1031600080914F06909150060E94CB0120E1B3015F
:10317000A20180914F06909150060E94430AA090B0
:10318000AD05B090AE056AE771E080914F06909171
:1031900050060E94CB0160904F0670905006A5012A
:1031A00070E060E020E1C3010E94430AC3010E9475
:1031B000DC0A2092B8003092A105F8E0F093A20555
:1031C0001092A3051092A4051092A50520E9209362
:1031D000A605E092A705F092A8051092A905109205
:1031E000AA051092AB051092AC051092AD05109295
:1031F000AE051092AF051092B0051092B10561E1D5
:1032000082E00E94350F88EEA82E83E0B82E31E0D0
:10321000A31AB10809F471C60E94DD0E8823B9F320
:103220008091A1058C3F99F760919E0670919F0651
:103230008091A0069091A10620919D06283039F436
:103240006039FFE57F07F1E08F07910591F128EEE6
:1032500033E040E050E00E94D02449015A0169E186
:1032600072E08CEE94E00E94340A80919D060E94E8
:10327000F10A68E272E08CEE94E00E94340A2AE0DF
:10328000B501A401B7FE0DC06DE28CEE94E00E9482
:103290008F0244275527BA01481959096A097B0941
:1032A0002AE08CEE94E00E94430A8BE392E00E94B5
:1032B000E00A81E080934F0390E080E00E941220BA
:1032C00080934D0381E090E00E94122080934E0392
:1032D00080914D0390914E038C3E934109F46AC056
:1032E0001A8219826CEECE0101960E94AA1081E02A
:1032F00090E09A83898363E1CE0101960E94AA102F
:103300000E94C3100E94EB10609155018091510101
:10331000681B770B072E000C880B990B0E94B621B7
:1033200020E030E040EA50E40E940C216093560314
:1033300070935703809358039093590387E390E069
:10334000812C912C54018394009709F456C0FC0100
:10335000A3E0F595E795AA95E1F7EA5BFC4F282FE6
:103360002770B501A40104C0440F551F661F771FC5
:103370002A95D2F72081242B20830197E5CF8BEB70
:1033800091E00E94E00A85EC91E00E94E00A109230
:1033900051031DCE8FE392E00E94E00A8016910651
:1033A00009F48ACF26CE8BEB91E00E94E00A89E6F1
:1033B00092E0F2CF00E5E02E01E0F02E0AE010E00E
:1033C000C8010E941220F70181937F010F5F1F4FF8
:1033D00008311105A9F714E4E12E11E0F12E08E2FD
:1033E00010E0C8010E941220D7018D937D010F5F6C
:1033F0001F4F04331105A9F787CF6CE271E08FE509
:1034000093E00E94630988EC90E090935B038093C3
:103410005A030CB406FC25C061E08AE00E947C03DC
:1034200061E08AE00E944E0361E08BE00E947C0331
:1034300061E08DE00E947C0360E08CE00E947C03F0
:1034400061E08BE00E944E0360E08BE00E944E033F
:1034500060E08DE00E944E0380E58CBD8DB58160FB
:103460008DBD8AE08093450361E00E947C030E9449
:1034700061074FEF60E08FEF0E94950762E070E018
:1034800080E090E00E943A040E9468078DE10E946B
:103490005C0780E00E945C071EB50E946107112353
:1034A00099F370E060E088E00E94D30770E060E08C
:1034B0008CE00E94D3076FEF7BE08AE00E94D30785
:1034C00060E07CE084E00E94D3076FEF71E186E06A
:1034D0000E94D30761EB88E30E94C6076FE370E3A5
:1034E00088E20E94D30769EF77EF80E30E94D30759
:1034F0006DE080EC0E94C60760E081EC0E94C60788
:1035000042E362EC80E80E94950762E17CE086EC91
:103510000E94D30762E184EC0E94C6076CED75E05F
:103520008AEC0E94D30760915F0384EE0E94C60775
:103530006091600385EE0E94C6076091610382EE90
:103540000E94C6076091620383EE0E94C6076091E5
:10355000630380EE0E94C6076091640381EE0E94BF
:10356000C60760E184ED0E94C60760E071E086ED69
:103570000E94D3078AEE0E94E00780FDFBCF8FE117
:103580000E94AA0740EC6BE180E80E94950744E0A6
:103590006FE180E80E94950782E70E94E00786308D
:1035A00008F08F5F811106C064EE71E08CEE94E04C
:1035B0000E94040B68E271E08AE994E00E947609B7
:1035C00010929F0310929E0381E08093A00364E217
:1035D00071E08AE993E00E94760960E271E086E991
:1035E00093E00E9476096CE171E086E994E00E9424
:1035F0007609EAE9F4E026E934E04EEB53E09191F4
:10360000D9018D919D018095892BDA018D93AD01B2
:10361000B4E0EE39FB0799F76AE974E087E892E0D5
:103620000E9415106AE973E08DE892E00E9415107F
:1036300066E973E083E992E00E94151080918D03A2
:10364000883098F405E0809FF0011124EB59FC4F7D
:1036500023E131E13183208328EB32E2338322837B
:1036600091E094838F5F80938D0389E992E00E94BB
:10367000E00A80E88093CD061092CA061092C9062F
:1036800060E0262E60E0362EFF24F39472E0E72EF1
:103690002FB7F8948091520390915303A091540353
:1036A000B09155032FBF40913C0150913D01609175
:1036B0003E0170913F018C019D01041B150B260BEF
:1036C000370BB901A801493151056105710508F4AD
:1036D00043C280933C0190933D01A0933E01B0937F
:1036E0003F01F092BD0380913B018B3F08F0AAC2DD
:1036F0008F5F80933B0187E00E942503182F809302
:10370000BC0380914901813009F0A0C286E00E948B
:10371000250380933A0180914B01882361F09091B9
:103720004E018091B803891730F0F0923A01F0927F
:1037300039011092BB0380914C01882309F44AC0DF
:103740000E94BA013C012AE939E949E15FE360914D
:10375000B4037091B5038091B6039091B7030E94B2
:103760009A224B015C01B301770C880B990B0E94E4
:10377000B62120E030E040E85EE30E949A222DEC82
:103780003CEC4CEC5EE30E949A229B01AC01C5012B
:10379000B4010E9429202B013C014092B4035092B5
:1037A000B5036092B6037092B70360914E0170E06A
:1037B00090E080E00E94B6219B01AC01C301B20100
:1037C0000E948D2287FD06C0F0923A01F0923901E5
:1037D0001092BB0380914D01882309F461C00E94BF
:1037E000BA01BC01990F880B990B0E94B6219B016D
:1037F000AC0160E070E080E094E40E9428202B019E
:103800003C0120E030E0A9010E948D2218160CF046
:103810004EC220E030E040E05FE3C301B2010E940D
:103820009A222B013C0123E333E343E35FE36091FE
:10383000B4037091B5038091B6039091B7030E94D1
:103840009A224B015C012AE939E949E95EE3C301A7
:10385000B2010E949A229B01AC01C501B4010E94F1
:1038600029202B013C014092B4035092B503609291
:10387000B6037092B70360914E0170E090E080E073
:103880000E94B6219B01AC01C301B2010E948D22AE
:1038900087FD06C0F0923A01F09239011092BB0305
:1038A00088E00E942503982F990F990F80913A0183
:1038B000880F892B182B1093B3038091470188231D
:1038C00009F4FDC120E030E43093CC062093CB0610
:1038D0000E9407099093B2038093B1030E94BA0833
:1038E0008091B1039091B203959587959093B2031F
:1038F0008093B1036091B1037091B20365597A412D
:10390000809152019091530140905601509057017F
:10391000609058017090590120914401222309F4CC
:10392000D3C1681B790B7093B2036093B103072E68
:10393000000C880B990B0E94B621A30192015058EC
:103940000E940C216093AD037093AE038093AF038C
:103950009093B0034090AD035090AE036090AF03DE
:103960007090B00320E030E0A901C301B2010E94D1
:10397000072187FF14C0A301920160915A01709141
:103980005B0180915C0190915D010E949A2260939D
:10399000AD037093AE038093AF039093B003809117
:1039A000480190913B01943608F0ADC1882309F499
:1039B0009AC18091450160E0811101C061E089E018
:1039C0000E944E032091A9033091AA034091AB03BA
:1039D0005091AC036091AD037091AE038091AF0341
:1039E0009091B0030E9428202B013C014092A50336
:1039F0005092A6036092A7037092A80360915001B1
:103A000070E090E080E00E94B621A30192010E9444
:103A10009A220E947E214B018B017093A403609334
:103A2000A30320E030E0A901C301B2010E948D226E
:103A3000181624F077FA709477F8709420E030E04C
:103A400040EA50E4C301B2010E9407216091550190
:103A500070E087FF1DC020915603309157034091BD
:103A6000580350915903C301B2010E949A222B01BD
:103A70003C016091510170E090E080E00E94B6212D
:103A80009B01AC01C301B2010E9429200E947E214A
:103A900017FF2CC18091540190E0881A990A9092E6
:103AA000A4038092A3038091A3039091A4036817B9
:103AB000790724F47093A4036093A303719561952F
:103AC00071098091A3039091A4038617970724F4AA
:103AD0007093A4036093A30380914601882359F057
:103AE0008091A3039091A40391958195910990935E
:103AF000A4038093A30380914F018823C9F0809190
:103B0000A3039091A4038B3F910514F08AEF90E0FA
:103B100086303FEF930714F486E09FEF95958795E5
:103B20009595879580589F4F9093A4038093A30306
:103B30000E9466088091A2038F5F8093A2038B305E
:103B400058F02FE037E248EB52E267E082E391E081
:103B50000E9495091092A20361E070E080E090E07D
:103B60000E943A0480915E03882379F060915C039F
:103B700070915D036115710509F0DCC06FEF7BE0AA
:103B80008CE00E94D30710925E0389E30E94E00755
:103B90008111D3C08091A003857009F087C1809105
:103BA0009E0390919F03019690939F0380939E03A1
:103BB00086E993E00E949A01882371F08091950331
:103BC00081110AC080919403811106C086E993E0B7
:103BD0000E947610F092940380E993E00E949A018B
:103BE000882371F080918F0381110AC080918E0328
:103BF000811106C080E993E00E947610F0928E0356
:103C00008091BD03882391F088E00E942503909164
:103C1000A103891759F08093A103882339F080917B
:103C2000B8038F5F8093B8031092BD032114310451
:103C300009F42ECD0E945902882309F429CD0E944F
:103C4000000026CD16E610933B0155CD80914A0128
:103C50008130C9F486E00E942503811111C0909142
:103C6000BB03913069F420913901213029F410927D
:103C7000390110923A0104C09093390190933A01AE
:103C80008093BB0348CD8091BA03882309F443CDC8
:103C90008091B903813009F033C180913A018130BC
:103CA00009F039CD9091BB03911135CDE2CFC3011D
:103CB000B201905820E030E040E05FE3B0CD1092D8
:103CC000CC061092CB0604CE680F791F7093B20316
:103CD0006093B103072E000C880B990B0E94B6214C
:103CE000A30192012DCE61E084E06ACE012B09F49C
:103CF000DACE8091540190E0880D991D9093A40331
:103D00008093A303D0CE882391F08091450161E098
:103D1000811101C060E089E00E944E031092A4036B
:103D20001092A3030E9466081092B80303CF60E0CC
:103D300084E0F2CF6150710923CF60915C037091F0
:103D40005D0380E00E94D307BE016F5F7F4F86E076
:103D500090E00E946E0789819A8190935D03809321
:103D60005C038D819E818C010078112787FF12C032
:103D70008B819C81049700915A0310915B03015041
:103D800011098017910708F48C016EEC73E0C801EB
:103D90000E946E07F801E253FC4F1082F0925E031E
:103DA00040E46EE180E80E9495070115110509F4D1
:103DB000F1CE0932110508F423CF8091DA0388305F
:103DC00009F01ECF8091DB03863009F0A9C044E0E2
:103DD00050E06AE974E084EF93E00E94F524892BB7
:103DE00009F00ECF8091E303813021F584ED93E05B
:103DF0000E946B091092E203E092E30364EE73E029
:103E00008EEE93E00E9463096FE573E084EE93E029
:103E10000E9463096AEE73E084EF93E00E947609E2
:103E20006AE974E08AEE93E00E9476098AE290E003
:103E30000E94F8078091A00383FF0DC01091E30357
:103E4000123049F462EC73E08AE993E00E947E0943
:103E500081111093A00380919503811110C080916E
:103E60009403882361F068EC73E086E993E00E9494
:103E70007E09882321F0F09295031092940380919B
:103E80008F038111BDCE80918E03882309F4B8CEB3
:103E900068EC73E080E993E00E947E09882309F4CE
:103EA000AFCEF0928F0310928E03AACE80919E0324
:103EB00090919F03892B09F072CE61E184ED0E94FD
:103EC000C60761E082ED0E94C6078AEE0E94E00705
:103ED00080FDFBCF60E082ED0E94C60789ED0E9465
:103EE000E00782FF5CCE8AE993E00E947610809121
:103EF000A00388608093A00352CE8FEB92E04CCA5F
:103F0000811109CC80913A01811105CC8091BB03CC
:103F1000813009F000CC80933A011092BB03FBCBB7
:103F20000932110509F46CCE81116ACE8091DC034F
:103F3000853409F065CE44E050E06AE974E08CEE27
:103F400093E00E94F524892BA9F044E050E06EEB49
:103F500073E08CEE93E00E94F524892B59F044E045
:103F600050E060E671E08CEE93E00E94F524892B2E
:103F700009F046CE80918D03882309F441CE8091CB
:103F8000E503813109F03CCE35E6632E33E0732E34
:103F9000512C412C80918D038415150409F00CF4EB
:103FA0002FCED30112962C91129713969C911397B2
:103FB0008091F203C92ED12C8C151D0419F5809126
:103FC000F30382131FC014962C9114972223D1F06F
:103FD0004091F5034850550B2091F403022F10E057
:103FE000102F0027040F151F4091F0035091F1038B
:103FF000542745275427ED91FC9128EF33E068EED4
:1040000073E00995BFEF4B1A5B0AE5E06E0E711C79
:10401000C1CFFB01DC0102C005900D924150504020
:10402000D8F70895F999FECF92BD81BDF89A9927E6
:1040300080B50895262FF999FECF1FBA92BD81BD94
:1040400020BD0FB6F894FA9AF99A0FBE019608951A
:104050005058BB27AA270E9440200C9453220E944C
:10406000452238F00E944C2220F039F49F3F19F489
:1040700026F40C941B220EF4E095E7FB0C94152219
:10408000E92F0E94642258F3BA1762077307840766
:10409000950720F079F4A6F50C9486220EF4E095AD
:1040A0000B2EBA2FA02D0B01B90190010C01CA01F2
:1040B000A0011124FF27591B99F0593F50F4503E9D
:1040C00068F11A16F040A22F232F342F4427585F8F
:1040D000F3CF469537952795A795F0405395C9F7A7
:1040E0007EF41F16BA0B620B730B840BBAF091505F
:1040F000A1F0FF0FBB1F661F771F881FC2F70EC0FE
:10410000BA0F621F731F841F48F4879577956795D0
:10411000B795F7959E3F08F0B0CF9395880F08F0BC
:104120009927EE0F9795879508950E94452260F094
:1041300080E891E009F49EEF0E944C2228F040E8CC
:1041400051E071F45EEF0CC00C941B220C9486229B
:10415000E92FE0780E94642240F3092E052AB1F38A
:10416000261737074807590738F00E2E07F8E025BD
:1041700069F0E025E0640AC0EF6307F8009407FAED
:10418000DB01B9019D01DC01CA01AD01EF930E9481
:1041900023210E9453220E94D8205F91552339F099
:1041A0002BED3FE049E450FD49EC0C9429200895A3
:1041B000DF93DD27B92FBF7740E85FE316161706B8
:1041C00048075B0718F4D92F0E9492229F938F9380
:1041D0007F936F930E949D23E8E6F0E00E941E22E9
:1041E0000E9453222F913F914F915F910E94AD22E7
:1041F000DD2351F09058A2EA2AED3FE049EC5FE35D
:10420000D0785D270E944020DF910C9453220E94B9
:10421000F12108F481E008950E9420210C9453229A
:104220000E944C2258F00E94452240F029F45F3F42
:1042300029F00C94152251110C9487220C941B2206
:104240000E94642268F39923B1F3552391F3951BDF
:10425000550BBB27AA2762177307840738F09F5FA7
:104260005F4F220F331F441FAA1FA9F335D00E2E14
:104270003AF0E0E832D091505040E695001CCAF781
:104280002BD0FE2F29D0660F771F881FBB1F261744
:1042900037074807AB07B0E809F0BB0B802DBF011B
:1042A000FF2793585F4F3AF09E3F510578F00C94EA
:1042B00015220C9487225F3FE4F3983ED4F3869551
:1042C00077956795B795F7959F5FC9F7880F911D0B
:1042D0009695879597F90895E1E0660F771F881FF7
:1042E000BB1F621773078407BA0720F0621B730BAA
:1042F000840BBA0BEE1F88F7E09508950E94852184
:104300006894B1110C94872208950E946C2288F061
:104310009F5798F0B92F9927B751B0F0E1F0660F89
:10432000771F881F991F1AF0BA95C9F714C0B130CA
:1043300091F00E948622B1E008950C948622672FA6
:10434000782F8827B85F39F0B93FCCF386957795F9
:104350006795B395D9F73EF49095809570956195E2
:104360007F4F8F4F9F4F0895E89409C097FB3EF40D
:1043700090958095709561957F4F8F4F9F4F9923B2
:10438000A9F0F92F96E9BB279395F6958795779530
:104390006795B795F111F8CFFAF4BB0F11F460FFF0
:1043A0001BC06F5F7F4F8F4F9F4F16C0882311F048
:1043B00096E911C0772321F09EE8872F762F05C05C
:1043C000662371F096E8862F70E060E02AF09A95F7
:1043D000660F771F881FDAF7880F9695879597F9EC
:1043E0000895990F0008550FAA0BE0E8FEEF161686
:1043F0001706E807F907C0F012161306E407F507D9
:1044000098F0621B730B840B950B39F40A2661F04C
:10441000232B242B252B21F408950A2609F4A140EF
:10442000A6958FEF811D811D089597F99F6780E8FC
:1044300070E060E008959FEF80EC0895DF93CF93E4
:104440001F930F93FF92EF92DF927B018C01689490
:1044500006C0DA2EEF010E94AD22FE01E894A5917C
:104460002591359145915591A6F3EF010E94402089
:10447000FE019701A801DA9469F7DF90EF90FF90B1
:104480000F911F91CF91DF91089500240A94161681
:10449000170618060906089500240A941216130632
:1044A000140605060895092E0394000C11F48823C0
:1044B00052F0BB0F40F4BF2B11F460FF04C06F5FDC
:1044C0007F4F8F4F9F4F089557FD9058440F551FB2
:1044D00059F05F3F71F04795880F97FB991F61F086
:1044E0009F3F79F087950895121613061406551FFD
:1044F000F2CF4695F1DF08C0161617061806991F69
:10450000F1CF86957105610508940895E894BB275D
:1045100066277727CB0197F908950E94F12108F4C7
:104520008FEF08959B01AC0160E070E080E89FE3AD
:104530000C940C210E94AD220C9453220E9445221F
:1045400038F00E944C2220F0952311F00C94152293
:104550000C941B2211240C9487220E94642270F375
:10456000959FC1F3950F50E0551F629FF001729F18
:10457000BB27F00DB11D639FAA27F00DB11DAA1F27
:10458000649F6627B00DA11D661F829F2227B00D74
:10459000A11D621F739FB00DA11D621F839FA00DFF
:1045A000611D221F749F3327A00D611D231F849F4F
:1045B000600D211D822F762F6A2F11249F575040A6
:1045C0009AF0F1F088234AF0EE0FFF1FBB1F661F21
:1045D000771F881F91505040A9F79E3F510580F0EA
:1045E0000C9415220C9487225F3FE4F3983ED4F399
:1045F000869577956795B795F795E7959F5FC1F78E
:10460000FE2B880F911D9695879597F90895FA01CD
:10461000EE0FFF1F309621053105A1F161157105DF
:1046200061F48038BFE39B0749F1689490388105B5
:1046300061F08038BFEF9B0741F099234AF5FF3FB7
:10464000E1053105210519F1E8940894E795D901B0
:10465000AA2329F4AB2FBE2FF85FD0F310C0FF5F61
:1046600070F4A695E0F7F73950F019F0FF3A38F4F6
:104670009F779F930DD00F9007FC9058089546F0B8
:104680000C941B2260E070E080E89FE308954FE700
:104690009F775F934F933F932F930E9432242F91E4
:1046A0003F914F915F910E949A220C94A92319F493
:1046B00016F40C941B220C94DB230E946C22B8F39A
:1046C0009923C9F3B6F39F57550B87FF0E94E9233F
:1046D0000024A0E640EA900180585695979528F46A
:1046E000805C660F771F881F20F026173707480762
:1046F00030F4621B730B840B202931294A2BA695B9
:1047000017940794202531254A2758F7660F771FFD
:10471000881F20F026173707480730F4620B730B09
:10472000840B200D311D411DA09581F7B901842F07
:104730009158880F9695879508959B01AC010C942C
:104740009A2229F416F00C9415220C9486220C94CB
:104750001B220E946C22A8F39638A0F707F80F924C
:10476000E8942BE33AEA48EB5FE70E94B0220F920D
:104770000F920F924DB75EB70F920E947A24E5E92F
:10478000F0E00E941E224F915F91EF91FF91E5951D
:10479000EE1FFF1F49F0FE57E0684427EE0F441F4D
:1047A000FA95E1F74195550B0E94F4230F9007FE0F
:1047B0000C94922208959F3F31F0915020F48795F8
:1047C00077956795B795880F911D9695879597F979
:1047D000089591505040660F771F881FD2F70895B3
:1047E0000C9415220C94DB230E946C22D8F399239D
:1047F000C9F3940F511DA3F39150504094F059F018
:10480000882332F0660F771F881F91505040C1F700
:104810009E3F51052CF7880F911D9695879597F926
:1048200008955F3FACF0983E9CF0BB278695779546
:104830006795B79508F4B1609395C1F7BB0F58F72A
:1048400011F460FFE8CF6F5F7F4F8F4F9F4FE3CF33
:104850000C94872216F00C94DB230C941B22689492
:104860000C9415220E946C22A8F39923C1F3AEF395
:10487000DF93CF931F930F93FF92C92FDD278823D8
:104880002AF02197660F771F881FDAF720E030E0C3
:1048900040E85FEB9FE3883920F0803E38F02196B6
:1048A0008F770E942920EDEBF0E004C00E942920C0
:1048B000EAEEF0E00E941E228B01BE01EC01FB2E0D
:1048C0006F5771097595771F880B990B0E94B62158
:1048D00028E132E741E35FE30E94AD22AF2D98016A
:1048E000AE01FF900F911F91CF91DF910E94402068
:1048F0000C945322FA01DC01AA0FBB1F9B01AC01EF
:10490000BF5728F4222733274427507820C0B751B7
:1049100090F4AB2F0024469537952795011CA3955D
:10492000D2F3002071F0220F331F441FB395DAF346
:104930000ED00C94282061307105A0E88A07B94692
:1049400030F49B01AC016627772788279078309652
:1049500021F020833183428353830895A1E21A2EEC
:10496000AA1BBB1BFD010DC0AA1FBB1FEE1FFF1F13
:10497000A217B307E407F50720F0A21BB30BE40B63
:10498000F50B661F771F881F991F1A9469F76095AA
:104990007095809590959B01AC01BD01CF01089564
:1049A000052E97FB1EF400940E94E72457FD07D0C4
:1049B0000E94AE2407FC03D04EF40C94E7245095DB
:1049C0004095309521953F4F4F4F5F4F08959095FB
:1049D0008095709561957F4F8F4F9F4F0895EE0F93
:1049E000FF1F0590F491E02D0994FB01DC0104C048
:1049F0008D910190801921F441505040C8F7881BD7
:104A0000990B0895FB01DC0102C001900D92415009
:0A4A10005040D8F70895F894FFCF46
:104A1A0080817FFA080000000000000000CC80813D
:104A2A007FFD080000000000000000CCFFFFFF002F
:104A3A0008080808C0A80101C0A801497069692DC1
:104A4A00303180817FC701004701016619000000EB
:104A5A00C0A801FF000000010100000000000500DD
:104A6A00280A0000093C0000F0410000803F4A4B40
:104A7A00FFFFFFFFFFFF000000008F02EF011C0293
:104A8A00DC024D022B023F0200000000F805CB05B4
:104A9A005808A105C405B105A20500000000960A40
:104AAA000D0A004572726F72203D203000434D504E
:104ABA0053313420414444524553733A20307800EC
:104ACA00434D50533134204F6B2E004572726F7232
:104ADA00203D203400434D5053206E6F7420436FA5
:104AEA006E6E6563746564206F7220466F756E64BE
:104AFA00000D0A436865636B696E6720666F7220F2
:104B0A00424E4F303858206F6E2000424E4F303898
:104B1A005820414444524553733A20307800424E5B
:104B2A004F303858204F6B2E005265706F727420C8
:104B3A004944203A203078005265706F72742069B7
:104B4A006E74657276616C203A2000206D730042A3
:104B5A004E4F303830206E6F74206465746563740C
:104B6A00656420617420676976656E204932432046
:104B7A00616464726573732E00424E4F3038582058
:104B8A006E6F7420436F6E6E6563746564206F7216
:104B9A0020466F756E640049503A20200047573A04
:104BAA00202000444E533A200053657475702063E8
:104BBA006F6D706C6574652C2077616974696E67B6
:104BCA0020666F722041674F70656E4750530042EE
:104BDA004E4F30387820696E6974206661696C734B
:044BEA002121000085
:00000001FF
