:100000000C945E000C9486000C9486000C94860080
:100010000C9486000C9486000C9486000C942102AB
:100020000C9486000C9486000C9486000C94860038
:100030000C9486000C9486000C9486000C94860028
:100040000C94FB020C9486000C94C9020C94A3023D
:100050000C9486000C9486000C9486000C94860008
:100060000C9486000C948600000000080002010039
:100070000003040700000000000000000200000070
:1000800000250028002B0000000000240027002A83
:100090000004040404040404040202020202020331
:1000A000030303030301020408102040800102043B
:1000B00008102001020408102000220811241FBE8D
:1000C000CFEFD8E0DEBFCDBF11E0A0E0B1E0E0EBC4
:1000D000F3E102C005900D92AA32B107D9F721E0F1
:1000E000AAE2B1E001C01D92A53FB207E1F710E01E
:1000F000CEE5D0E004C02197FE010E94D009CD35A5
:10010000D107C9F70E9445030C94D6090C9400004E
:1001100090E0FC01EB55FF4F24918F569F4FFC015F
:100120008491882399F090E0880F991FFC01E9578A
:10013000FF4FA591B491FC01E358FF4F8591949135
:100140008FB7F894EC91E22BEC938FBF0895AF92A8
:10015000BF92CF92DF92EF92FF920F931F93CF93B4
:10016000DF936C017B018B01040F151FEB015E0116
:10017000AE18BF08C017D10759F06991D601ED91AB
:10018000FC910190F081E02DC6010995892B79F74A
:10019000C501DF91CF911F910F91FF90EF90DF90FC
:1001A000CF90BF90AF900895FC01538D448D252FC3
:1001B00030E0842F90E0821B930B541710F0CF9601
:1001C000089501970895FC01918D828D981761F033
:1001D000A28DAE0FBF2FB11D5D968C91928D9F5F4A
:1001E0009F73928F90E008958FEF9FEF0895FC0129
:1001F000918D828D981731F0828DE80FF11D858DDC
:1002000090E008958FEF9FEF0895FC01918D228D6E
:10021000892F90E0805C9F4F821B91098F739927F3
:10022000089586E591E00E94050121E0892B09F4FB
:1002300020E0822F089580E090E0892B29F00E9431
:10024000110181110C9400000895FC01A48DA80FE8
:10025000B92FB11DA35ABF4F2C91848D90E0019608
:100260008F739927848FA689B7892C93A089B18928
:100270008C91837080648C93938D848D981306C0C9
:100280000288F389E02D80818F7D80830895EF922D
:10029000FF920F931F93CF93DF93EC0181E0888F40
:1002A0009B8D8C8D98131AC0E889F989808185FF10
:1002B00015C09FB7F894EE89FF896083E889F989B2
:1002C00080818370806480839FBF81E090E0DF91B4
:1002D000CF911F910F91FF90EF900895F62E0B8D07
:1002E00010E00F5F1F4F0F731127E02E8C8D8E11C2
:1002F0000CC00FB607FCFACFE889F989808185FF29
:10030000F5CFCE010E942501F1CFEB8DEC0FFD2F33
:10031000F11DE35AFF4FF0829FB7F8940B8FEA89E3
:10032000FB8980818062CFCFCF93DF93EC01888DF2
:100330008823B9F0AA89BB89E889F9898C9185FD60
:1003400003C0808186FD0DC00FB607FCF7CF8C91EE
:1003500085FFF2CF808185FFEDCFCE010E94250180
:10036000E9CFDF91CF91089590E0FC01E859FF4F6C
:100370002491FC01EB55FF4F3491FC01EF56FF4FE8
:10038000E491EE23C9F0222339F0233001F1A8F4DF
:10039000213019F1223029F1F0E0EE0FFF1FE35870
:1003A000FF4FA591B4918FB7F894EC91611126C0DD
:1003B00030953E233C938FBF08952730A9F0283015
:1003C000C9F0243049F7809180008F7D03C080916F
:1003D00080008F7780938000DFCF84B58F7784BDD6
:1003E000DBCF84B58F7DFBCF8091B0008F7780937A
:1003F000B000D2CF8091B0008F7DF9CF3E2BDACF05
:10040000FF920F931F93CF93DF9303E111E0C6E0B8
:10041000D0E0F801F1908F01CE010E944F08F8164C
:1004200021F06F2DCE010E9457082196CA30D105C8
:1004300081F783E191E0DF91CF911F910F91FF90C0
:1004400008951F920F920FB60F9211242F933F938E
:100450004F935F936F937F938F939F93AF93BF93CC
:10046000EF93FF9380913A0190913B01A0913C0161
:10047000B0913D01892B8A2B8B2BD1F190913501C5
:10048000E0913601F0913701808189278083809146
:100490003A0190913B01A0913C01B0913D011816A9
:1004A00019061A061B069CF480913A0190913B01B3
:1004B000A0913C01B0913D010197A109B109809340
:1004C0003A0190933B01A0933C01B0933D01FF9111
:1004D000EF91BF91AF919F918F917F916F915F91BC
:1004E0004F913F912F910F900FBE0F901F90189535
:1004F00080910001ECE7F0E0E4919FEF9093000120
:10050000E13051F030F0E23069F060E00E94B40177
:10051000DECF10926E00F9CF90916F009D7F909387
:100520006F00F3CF909170009D7F9093700091E0E9
:100530009093B0009091B100987F94609093B10037
:100540001092B300E2CF1F920F920FB60F921124B8
:100550002F933F934F935F936F937F938F939F93CB
:10056000AF93BF93EF93FF9386E591E00E9425013F
:10057000FF91EF91BF91AF919F918F917F916F917B
:100580005F914F913F912F910F900FBE0F901F9051
:1005900018951F920F920FB60F9211242F938F93DD
:1005A0009F93EF93FF93E0916601F0916701808143
:1005B000E0916C01F0916D0182FD1BC090818091F2
:1005C0006F018F5F8F7320917001821741F0E0916E
:1005D0006F01F0E0EA5AFE4F958F80936F01FF9113
:1005E000EF919F918F912F910F900FBE0F901F90C1
:1005F00018958081F4CF1F920F920FB60F9211249D
:100600002F933F938F939F93AF93BF93809131012B
:1006100090913201A0913301B091340130912E01BB
:1006200023E0230F2D3758F50196A11DB11D20930E
:100630002E018093310190933201A0933301B09346
:10064000340180912A0190912B01A0912C01B0914D
:100650002D010196A11DB11D80932A0190932B01BC
:10066000A0932C01B0932D01BF91AF919F918F91D9
:100670003F912F910F900FBE0F901F90189526E875
:10068000230F0296A11DB11DD2CFCF93DF9300D0CF
:1006900000D01F92CDB7DEB7789484B5826084BD58
:1006A00084B5816084BD85B5826085BD85B5816076
:1006B00085BD80916E00816080936E0010928100F4
:1006C00080918100826080938100809181008160AF
:1006D0008093810080918000816080938000809170
:1006E000B10084608093B1008091B00081608093FC
:1006F000B00080917A00846080937A0080917A00C3
:10070000826080937A0080917A00816080937A0081
:1007100080917A00806880937A001092C100E09105
:100720006601F091670182E08083E0916201F091BF
:1007300063011082E0916401F091650183E380839D
:1007400010926E01E0916A01F0916B0186E0808366
:10075000E0916801F0916901808180618083E0917E
:100760006801F0916901808188608083E09168016F
:10077000F0916901808180688083E0916801F09147
:10078000690180818F7D808390E080E00E944F0826
:1007900080932F0181E090E00E944F088093300108
:1007A00080912F01909130018530904509F491C0DE
:1007B00090E080E00E944F08853029F065E090E0ED
:1007C00080E00E94570881E090E00E944F08803549
:1007D00029F060E581E090E00E9457080E94000245
:1007E00082E00E94880083E00E94880084E00E94EA
:1007F000880085E00E94880086E00E94880087E0EB
:100800000E94880088E00E94880089E00E94880099
:100810008AE00E9488008BE00E9488008CE00E94A1
:1008200088008DE00E94880048E4842E48EE942ED3
:10083000AA24A394B12C44244A94542C32013EE9B6
:10084000232E30E0332E02EB10E02FB7F894809186
:10085000310190913201A0913301B09134012FBF49
:1008600040910F015091100160911101709112019E
:100870006C017D01C41AD50AE60AF70AB701A60180
:10088000483C51056105710508F4BBC180930F0117
:1008900090931001A0931101B09312018091F40183
:1008A0008B3F80F58F5F8093F4018091F30191E09D
:1008B000980F9093F301853148F186E591E00E940D
:1008C00005011816190604F586E591E00E94E3007B
:1008D000F4CF86E090E00E944F088093130187E0F8
:1008E00090E00E944F088093140188E090E00E94FD
:1008F0004F088093150189E090E00E944F08809393
:1009000016016ECF8CE0CFCF1092F3019091F401DD
:100910009D3040F080911601882309F422C28FEFA8
:1009200080935501809154012FEF280F309153018E
:10093000831799F0223088F480935301109252016A
:1009400010925101823009F40FC230911401832FAB
:10095000880F880F830F8093520180915101882363
:1009600029F08150809351011092520180915201DF
:10097000882319F0815080935201223010F49B306B
:1009800030F01092520110925101109253012DE655
:100990003CE147E650E46091460170914701809147
:1009A0004801909149010E94FA08609346017093B2
:1009B000470180934801909349010E9465086B01AB
:1009C000809100018D3009F0D8C1ECE7F0E0F4919E
:1009D000FD83F7FDA7C08DE00E948800FD81FF2305
:1009E00021F02D81223009F092C2F12CE12C60E03F
:1009F00072E18AE790E0A70196010E948F0929839E
:100A00003A834B835C83DA01C9010197A109B109DB
:100A10008F3F9105A105B10509F00CF45EC260E4B9
:100A200072E48FE090E0A70196010E948F092150A7
:100A30003109410951098D81823009F00EC282E0ED
:100A40002F3F31054105510509F00CF45BC060E909
:100A500070ED83E090E0A70196010E948F0921507C
:100A600031094109510983E02F3F31054105510505
:100A700009F00CF447C0C501B401A70196010E941A
:100A80008F09215031094109510984E02F3F310577
:100A900041055105B9F1B4F164E274EF80E090E0F2
:100AA000A70196010E948F0921503109410951097E
:100AB00085E02F3F31054105510521F118F162E133
:100AC0007AE780E090E0A70196010E948F0921500B
:100AD00031094109510986E02F3F31054105510592
:100AE00089F080F029813A814B815C819AE05595AB
:100AF0004795379527959A95D1F7215031094109A6
:100B0000510987E09091B100987F892B8093B100C3
:100B1000FD81F13009F425C2F23009F434C2FF231B
:100B200009F4E4C1C0905501C9826C2D61708DE05B
:100B30000E94B401EC2CF12CB7017595679561709A
:100B400083E00E94B401B701759567957595679527
:100B5000617084E00E94B401B701E3E07595679588
:100B6000EA95E1F7617085E00E94B401B701F4E015
:100B700075956795FA95E1F7617086E00E94B4017A
:100B8000B701A5E075956795AA95E1F7617087E0D3
:100B90000E94B401B701B6E075956795BA95E1F783
:100BA000617088E00E94B4016C2D661F6627661F85
:100BB00089E00E94B4018091160180930601C092E1
:100BC00007018091500180930801E3E0F1E090E09B
:100BD00080E02191820F911D3EE0E32E31E0F32E63
:100BE000EE16FF06B1F780930E014EE050E061E093
:100BF00071E086E591E00E94A70086E591E00E9401
:100C0000940186E591E00E9405010597F4F080913A
:100C10004F0181111AC080914E01811116C086E5E5
:100C200091E00E94E30020914C0130914D01203869
:100C3000310509F0B8C1813809F0B5C181E0809370
:100C40004F0110924D0110924C0186E591E00E94F7
:100C500005010397DCF080914F018823B9F0809162
:100C60004E01811113C086E591E00E94E30086E504
:100C700091E00E94E30080934B0186E591E00E94A1
:100C8000E30080934A0181E080934E0186E591E084
:100C90000E94050120914A01281719060CF088C10D
:100CA00080914F01882309F483C180914E018823EC
:100CB00009F47EC180914B018F3E09F088C186E521
:100CC00091E00E94E30086E591E00E94E300BC0110
:100CD000990F880B990B0E949608609346017093B8
:100CE0004701809348019093490186E591E00E9475
:100CF000E3008093540186E591E00E94E300F82E22
:100D00008093500186E591E00E94E30086E591E042
:100D10000E94E30086E591E00E94E30089838093CE
:100D2000550186E591E00E94E30080911601882339
:100D300039F0F094F0925001F980F094F09255015E
:100D400086E591E00E94E3001092F4011092F30115
:100D500010924E0110924F0110924A0110924B01D5
:100D600027C110925501DECD30911301832F880FDA
:100D7000880F830F80935101F0CD8F3F09F0D2CEC1
:100D80008DE080930001ECE7F0E0F491FD83FF3FFC
:100D900009F4C8CEF13019F150F0F23009F43CC03A
:100DA0002D8127FDBFCE8DE00E9488001ACE14BC95
:100DB00015BC84B5826084BD85B5816085BDF101B7
:100DC0008491E82FF0E0EE0FFF1FE358FF4F85916D
:100DD0009491F8018491809339011D82FCCD109289
:100DE0008000109281008091810088608093810052
:100DF00080918100816080938100F1018491E82FCE
:100E0000F0E0EE0FFF1FE358FF4F85919491F8013A
:100E1000849180933801DFCD1092B0001092B10020
:100E20008091B00082608093B0008091B1008160B9
:100E30008093B100F1018491E82FF0E0EE0FFF1FE5
:100E4000E358FF4F85919491909337018093360139
:100E5000F801849180933501BECD2F3F31054105C6
:100E6000510509F00CF451C0C501B401A701960168
:100E70000E948F0921503109410951099D8184E067
:100E8000911117CE83E02F3F31054105510551F1F6
:100E90004CF162E17AE780E090E0A70196010E94C0
:100EA0008F09215031094109510984E02F3F310553
:100EB00041055105B9F0B0F029813A814B815C813F
:100EC0008AE055954795379527958A95D1F7215012
:100ED00031094109510985E005C09C0181E0CD80BF
:100EE000C11010CE95B5987F892B85BD27BD409246
:100EF00042015092430160924401709245018091F9
:100F00006E00826080936E000DCE82E0E8CFF12CFF
:100F1000E12C60E072E18AE790E0A70196010E946F
:100F20008F09215031094109510991E021153105FD
:100F300081E0480751055CF0C501B401A7019601A5
:100F40000E948F09215031094109510993E0ED8137
:100F5000E13009F0DDCD80918100887F892B80937D
:100F60008100309389002093880040923E01509286
:100F70003F01609240017092410180916F00826058
:100F800080936F00CFCD2093B30040923A015092EE
:100F90003B0160923C0170923D0180917000826043
:100FA00080937000BFCD992790934D0180934C01A1
:100FB00020E0C22E20E0D22ECD2809F446CC0E949B
:100FC0001101882309F43BCC0E94000038CC8E3EEE
:100FD00009F0BECE86E591E00E94E3008093130104
:100FE00086E591E00E94E3008093140186E591E09C
:100FF0000E94E3008093150186E591E00E94E300E2
:1010000080FF1DC081E08093160186E591E00E947B
:10101000E30086E591E00E94E30086E591E00E940E
:10102000E30086E591E00E94E30086E591E00E94FE
:10103000E3000E940002F0E0E0E0099589CE109202
:101040001601E3CFE6E5F1E01382128288EE93E029
:10105000A0E0B0E084839583A683B7838BE191E021
:101060009183808385EC90E09587848784EC90E081
:101070009787868780EC90E0918B808B81EC90E065
:10108000938B828B82EC90E0958B848B86EC90E046
:10109000978B868B118E128E138E148E0895F9996C
:1010A000FECF92BD81BDF89A992780B50895262F6D
:1010B000F999FECF1FBA92BD81BD20BD0FB6F8943D
:1010C000FA9AF99A0FBE019608950E94D90888F0FD
:1010D0009F5798F0B92F9927B751B0F0E1F0660FFC
:1010E000771F881F991F1AF0BA95C9F714C0B1303D
:1010F00091F00E94F308B1E008950C94F308672F73
:10110000782F8827B85F39F0B93FCCF3869577956B
:101110006795B395D9F73EF4909580957095619554
:101120007F4F8F4F9F4F0895E89409C097FB3EF47F
:1011300090958095709561957F4F8F4F9F4F992324
:10114000A9F0F92F96E9BB279395F69587957795A2
:101150006795B795F111F8CFFAF4BB0F11F460FF62
:101160001BC06F5F7F4F8F4F9F4F16C0882311F0BA
:1011700096E911C0772321F09EE8872F762F05C0CE
:10118000662371F096E8862F70E060E02AF09A9569
:10119000660F771F881FDAF7880F9695879597F95E
:1011A000089557FD9058440F551F59F05F3F71F057
:1011B0004795880F97FB991F61F09F3F79F08795BE
:1011C0000895121613061406551FF2CF4695F1DF47
:1011D00008C0161617061806991FF1CF86957105D7
:1011E000610508940895E894BB2766277727CB010B
:1011F00097F908950E940D090C947E090E947009C8
:1012000038F00E94770920F0952311F00C946709BB
:101210000C946D0911240C94F4080E94D10870F309
:10122000959FC1F3950F50E0551F629FF001729F8B
:10123000BB27F00DB11D639FAA27F00DB11DAA1F9A
:10124000649F6627B00DA11D661F829F2227B00DE7
:10125000A11D621F739FB00DA11D621F839FA00D72
:10126000611D221F749F3327A00D611D231F849FC2
:10127000600D211D822F762F6A2F11249F57504019
:101280009AF0F1F088234AF0EE0FFF1FBB1F661F94
:10129000771F881F91505040A9F79E3F510580F05D
:1012A0000C9467090C94F4085F3FE4F3983ED4F380
:1012B000869577956795B795F795E7959F5FC1F701
:1012C000FE2B880F911D9695879597F9089597F9AC
:1012D0009F6780E870E060E008959FEF80EC0895DC
:1012E00000240A9416161706180609060895002405
:1012F0000A9412161306140605060895092E03947F
:10130000000C11F4882352F0BB0F40F4BF2B11F4F2
:1013100060FF04C06F5F7F4F8F4F9F4F0895052E72
:1013200097FB1EF400940E94A60957FD07D00E9467
:10133000AE0907FC03D04EF40C94A60950954095D5
:10134000309521953F4F4F4F5F4F08959095809571
:10135000709561957F4F8F4F9F4F0895A1E21A2E90
:10136000AA1BBB1BFD010DC0AA1FBB1FEE1FFF1F49
:10137000A217B307E407F50720F0A21BB30BE40B99
:10138000F50B661F771F881F991F1A9469F76095E0
:101390007095809590959B01AC01BD01CF0108959A
:1013A000EE0FFF1F0590F491E02D0994F894FFCF04
:1013B000FF80817FED080000000000000000CCC825
:1013C00000000002040000000000004701A700D454
:0A13D0000094010501E300F700009E
:00000001FF
